{
  "_format": "hh-sol-artifact-1",
  "contractName": "AreaCalculator",
  "sourceName": "contracts/AreaCalculator.sol",
  "abi": [
    {
      "inputs": [
        {
          "internalType": "uint256",
          "name": "length",
          "type": "uint256"
        },
        {
          "internalType": "uint256",
          "name": "breadth",
          "type": "uint256"
        }
      ],
      "name": "AreaOfRectangle",
      "outputs": [
        {
          "internalType": "uint256",
          "name": "",
          "type": "uint256"
        }
      ],
      "stateMutability": "pure",
      "type": "function"
    },
    {
      "inputs": [
        {
          "internalType": "uint256",
          "name": "length",
          "type": "uint256"
        }
      ],
      "name": "AreaOfSquare",
      "outputs": [
        {
          "internalType": "uint256",
          "name": "",
          "type": "uint256"
        }
      ],
      "stateMutability": "pure",
      "type": "function"
    },
    {
      "inputs": [
        {
          "internalType": "uint256",
          "name": "base",
          "type": "uint256"
        },
        {
          "internalType": "uint256",
          "name": "height",
          "type": "uint256"
        }
      ],
      "name": "AreaOfTriangle",
      "outputs": [
        {
          "internalType": "uint256",
          "name": "",
          "type": "uint256"
        }
      ],
      "stateMutability": "pure",
      "type": "function"
    }
  ],
  "bytecode": "0x608060405234801561001057600080fd5b5061030c806100206000396000f3fe608060405234801561001057600080fd5b50600436106100415760003560e01c8063483c826f146100465780637cf91ebf14610076578063b07bf922146100a6575b600080fd5b610060600480360381019061005b919061016e565b6100d6565b60405161006d91906101aa565b60405180910390f35b610090600480360381019061008b91906101c5565b6100f1565b60405161009d91906101aa565b60405180910390f35b6100c060048036038101906100bb91906101c5565b61010c565b6040516100cd91906101aa565b60405180910390f35b6000806002836100e69190610234565b905080915050919050565b60008082846101009190610234565b90508091505092915050565b6000806002838561011d9190610234565b61012791906102a5565b90508091505092915050565b600080fd5b6000819050919050565b61014b81610138565b811461015657600080fd5b50565b60008135905061016881610142565b92915050565b60006020828403121561018457610183610133565b5b600061019284828501610159565b91505092915050565b6101a481610138565b82525050565b60006020820190506101bf600083018461019b565b92915050565b600080604083850312156101dc576101db610133565b5b60006101ea85828601610159565b92505060206101fb85828601610159565b9150509250929050565b7f4e487b7100000000000000000000000000000000000000000000000000000000600052601160045260246000fd5b600061023f82610138565b915061024a83610138565b925082820261025881610138565b9150828204841483151761026f5761026e610205565b5b5092915050565b7f4e487b7100000000000000000000000000000000000000000000000000000000600052601260045260246000fd5b60006102b082610138565b91506102bb83610138565b9250826102cb576102ca610276565b5b82820490509291505056fea2646970667358221220a83cc8228000fed7a058fe28243c5780b437700e2ccb3c5eff2b50363b8c3b0764736f6c63430008180033",
  "linkReferences": {},
  "deployedLinkReferences": {}
}