{
  "_format": "hh-sol-artifact-1",
  "contractName": "Bank",
  "sourceName": "contracts/Bank.sol",
  "abi": [
    {
      "anonymous": false,
      "inputs": [
        {
          "indexed": true,
          "internalType": "address",
          "name": "account",
          "type": "address"
        },
        {
          "indexed": false,
          "internalType": "uint256",
          "name": "amount",
          "type": "uint256"
        }
      ],
      "name": "Deposit",
      "type": "event"
    },
    {
      "anonymous": false,
      "inputs": [
        {
          "indexed": true,
          "internalType": "address",
          "name": "from",
          "type": "address"
        },
        {
          "indexed": true,
          "internalType": "address",
          "name": "to",
          "type": "address"
        },
        {
          "indexed": false,
          "internalType": "uint256",
          "name": "amount",
          "type": "uint256"
        }
      ],
      "name": "Transfer",
      "type": "event"
    },
    {
      "anonymous": false,
      "inputs": [
        {
          "indexed": true,
          "internalType": "address",
          "name": "account",
          "type": "address"
        },
        {
          "indexed": false,
          "internalType": "uint256",
          "name": "amount",
          "type": "uint256"
        }
      ],
      "name": "Withdrawal",
      "type": "event"
    },
    {
      "inputs": [],
      "name": "checkBalance",
      "outputs": [
        {
          "internalType": "uint256",
          "name": "",
          "type": "uint256"
        }
      ],
      "stateMutability": "view",
      "type": "function"
    },
    {
      "inputs": [],
      "name": "createAccount",
      "outputs": [],
      "stateMutability": "payable",
      "type": "function"
    },
    {
      "inputs": [],
      "name": "deposit",
      "outputs": [],
      "stateMutability": "payable",
      "type": "function"
    },
    {
      "inputs": [
        {
          "internalType": "address",
          "name": "to",
          "type": "address"
        },
        {
          "internalType": "uint256",
          "name": "amount",
          "type": "uint256"
        }
      ],
      "name": "transfer",
      "outputs": [],
      "stateMutability": "payable",
      "type": "function"
    },
    {
      "inputs": [
        {
          "internalType": "uint256",
          "name": "amount",
          "type": "uint256"
        }
      ],
      "name": "withdraw",
      "outputs": [],
      "stateMutability": "payable",
      "type": "function"
    }
  ],
  "bytecode": "0x608060405234801561001057600080fd5b50610dbf806100206000396000f3fe60806040526004361061004a5760003560e01c80632e1a7d4d1461004f5780639dca362f1461006b578063a9059cbb14610075578063c71daccb14610091578063d0e30db0146100bc575b600080fd5b6100696004803603810190610064919061093e565b6100c6565b005b6100736102b7565b005b61008f600480360381019061008a91906109c9565b6103c0565b005b34801561009d57600080fd5b506100a66106d4565b6040516100b39190610a18565b60405180910390f35b6100c461079a565b005b60008060003373ffffffffffffffffffffffffffffffffffffffff1673ffffffffffffffffffffffffffffffffffffffff1681526020019081526020016000205411610147576040517f08c379a000000000000000000000000000000000000000000000000000000000815260040161013e90610a90565b60405180910390fd5b80806000803373ffffffffffffffffffffffffffffffffffffffff1673ffffffffffffffffffffffffffffffffffffffff1681526020019081526020016000205410156101c9576040517f08c379a00000000000000000000000000000000000000000000000000000000081526004016101c090610afc565b60405180910390fd5b816000803373ffffffffffffffffffffffffffffffffffffffff1673ffffffffffffffffffffffffffffffffffffffff16815260200190815260200160002060008282546102179190610b4b565b925050819055503373ffffffffffffffffffffffffffffffffffffffff166108fc839081150290604051600060405180830381858888f19350505050158015610264573d6000803e3d6000fd5b503373ffffffffffffffffffffffffffffffffffffffff167f7fcf532c15f0a6db0bd6d0e038bea71d30d808c7d98cb3bf7268a95bf5081b65836040516102ab9190610a18565b60405180910390a25050565b600034116102fa576040517f08c379a00000000000000000000000000000000000000000000000000000000081526004016102f190610bf1565b60405180910390fd5b60008060003373ffffffffffffffffffffffffffffffffffffffff1673ffffffffffffffffffffffffffffffffffffffff168152602001908152602001600020541461037b576040517f08c379a000000000000000000000000000000000000000000000000000000000815260040161037290610c5d565b60405180910390fd5b346000803373ffffffffffffffffffffffffffffffffffffffff1673ffffffffffffffffffffffffffffffffffffffff16815260200190815260200160002081905550565b60008060003373ffffffffffffffffffffffffffffffffffffffff1673ffffffffffffffffffffffffffffffffffffffff1681526020019081526020016000205411610441576040517f08c379a000000000000000000000000000000000000000000000000000000000815260040161043890610a90565b60405180910390fd5b80806000803373ffffffffffffffffffffffffffffffffffffffff1673ffffffffffffffffffffffffffffffffffffffff1681526020019081526020016000205410156104c3576040517f08c379a00000000000000000000000000000000000000000000000000000000081526004016104ba90610afc565b60405180910390fd5b3373ffffffffffffffffffffffffffffffffffffffff168373ffffffffffffffffffffffffffffffffffffffff1614610531576040517f08c379a000000000000000000000000000000000000000000000000000000000815260040161052890610cc9565b60405180910390fd5b60008060008573ffffffffffffffffffffffffffffffffffffffff1673ffffffffffffffffffffffffffffffffffffffff16815260200190815260200160002054036105bf57816000808573ffffffffffffffffffffffffffffffffffffffff1673ffffffffffffffffffffffffffffffffffffffff16815260200190815260200160002081905550610615565b816000808573ffffffffffffffffffffffffffffffffffffffff1673ffffffffffffffffffffffffffffffffffffffff168152602001908152602001600020600082825461060d9190610ce9565b925050819055505b816000803373ffffffffffffffffffffffffffffffffffffffff1673ffffffffffffffffffffffffffffffffffffffff16815260200190815260200160002060008282546106639190610b4b565b925050819055508273ffffffffffffffffffffffffffffffffffffffff163373ffffffffffffffffffffffffffffffffffffffff167fddf252ad1be2c89b69c2b068fc378daa952ba7f163c4a11628f55a4df523b3ef846040516106c79190610a18565b60405180910390a3505050565b6000806000803373ffffffffffffffffffffffffffffffffffffffff1673ffffffffffffffffffffffffffffffffffffffff1681526020019081526020016000205411610756576040517f08c379a000000000000000000000000000000000000000000000000000000000815260040161074d90610a90565b60405180910390fd5b6000803373ffffffffffffffffffffffffffffffffffffffff1673ffffffffffffffffffffffffffffffffffffffff16815260200190815260200160002054905090565b60008060003373ffffffffffffffffffffffffffffffffffffffff1673ffffffffffffffffffffffffffffffffffffffff168152602001908152602001600020541161081b576040517f08c379a000000000000000000000000000000000000000000000000000000000815260040161081290610a90565b60405180910390fd5b6000341161085e576040517f08c379a000000000000000000000000000000000000000000000000000000000815260040161085590610d69565b60405180910390fd5b346000803373ffffffffffffffffffffffffffffffffffffffff1673ffffffffffffffffffffffffffffffffffffffff16815260200190815260200160002060008282546108ac9190610ce9565b925050819055503373ffffffffffffffffffffffffffffffffffffffff167fe1fffcc4923d04b559f4d29a8bfc6cda04eb5b0d3c460751c2402c5c5cc9109c346040516108f99190610a18565b60405180910390a2565b600080fd5b6000819050919050565b61091b81610908565b811461092657600080fd5b50565b60008135905061093881610912565b92915050565b60006020828403121561095457610953610903565b5b600061096284828501610929565b91505092915050565b600073ffffffffffffffffffffffffffffffffffffffff82169050919050565b60006109968261096b565b9050919050565b6109a68161098b565b81146109b157600080fd5b50565b6000813590506109c38161099d565b92915050565b600080604083850312156109e0576109df610903565b5b60006109ee858286016109b4565b92505060206109ff85828601610929565b9150509250929050565b610a1281610908565b82525050565b6000602082019050610a2d6000830184610a09565b92915050565b600082825260208201905092915050565b7f4163636f756e7420646f6573206e6f742065786973742e000000000000000000600082015250565b6000610a7a601783610a33565b9150610a8582610a44565b602082019050919050565b60006020820190508181036000830152610aa981610a6d565b9050919050565b7f496e73756666696369656e742062616c616e63652e0000000000000000000000600082015250565b6000610ae6601583610a33565b9150610af182610ab0565b602082019050919050565b60006020820190508181036000830152610b1581610ad9565b9050919050565b7f4e487b7100000000000000000000000000000000000000000000000000000000600052601160045260246000fd5b6000610b5682610908565b9150610b6183610908565b9250828203905081811115610b7957610b78610b1c565b5b92915050565b7f496e697469616c206465706f736974206d75737420626520677265617465722060008201527f7468616e207a65726f2e00000000000000000000000000000000000000000000602082015250565b6000610bdb602a83610a33565b9150610be682610b7f565b604082019050919050565b60006020820190508181036000830152610c0a81610bce565b9050919050565b7f4163636f756e7420616c7265616479206578697374732e000000000000000000600082015250565b6000610c47601783610a33565b9150610c5282610c11565b602082019050919050565b60006020820190508181036000830152610c7681610c3a565b9050919050565b7f43616e2774207472616e7366657220746f2073656c6600000000000000000000600082015250565b6000610cb3601683610a33565b9150610cbe82610c7d565b602082019050919050565b60006020820190508181036000830152610ce281610ca6565b9050919050565b6000610cf482610908565b9150610cff83610908565b9250828201905080821115610d1757610d16610b1c565b5b92915050565b7f416d6f756e74206d7573742062652067726561746572207468616e2030000000600082015250565b6000610d53601d83610a33565b9150610d5e82610d1d565b602082019050919050565b60006020820190508181036000830152610d8281610d46565b905091905056fea2646970667358221220c199924bfe4dc44ca9a7b4fabeca9edd2f96da7732225153bc0b18e7c15e6fda64736f6c63430008180033",
  "linkReferences": {},
  "deployedLinkReferences": {}
}