{
  "_format": "hh-sol-artifact-1",
  "contractName": "Crowdfunding",
  "sourceName": "contracts/Crowdfunding.sol",
  "abi": [
    {
      "inputs": [],
      "stateMutability": "nonpayable",
      "type": "constructor"
    },
    {
      "anonymous": false,
      "inputs": [
        {
          "indexed": false,
          "internalType": "uint256",
          "name": "campaignId",
          "type": "uint256"
        },
        {
          "indexed": false,
          "internalType": "address",
          "name": "benefactor",
          "type": "address"
        },
        {
          "indexed": false,
          "internalType": "uint256",
          "name": "amountRaised",
          "type": "uint256"
        }
      ],
      "name": "CampaignEnded",
      "type": "event"
    },
    {
      "anonymous": false,
      "inputs": [
        {
          "indexed": false,
          "internalType": "uint256",
          "name": "campaignId",
          "type": "uint256"
        },
        {
          "indexed": false,
          "internalType": "address",
          "name": "donor",
          "type": "address"
        },
        {
          "indexed": false,
          "internalType": "uint256",
          "name": "amount",
          "type": "uint256"
        }
      ],
      "name": "DonationReceived",
      "type": "event"
    },
    {
      "anonymous": false,
      "inputs": [
        {
          "indexed": false,
          "internalType": "uint256",
          "name": "campaignId",
          "type": "uint256"
        },
        {
          "indexed": false,
          "internalType": "string",
          "name": "title",
          "type": "string"
        },
        {
          "indexed": false,
          "internalType": "string",
          "name": "description",
          "type": "string"
        },
        {
          "indexed": false,
          "internalType": "address",
          "name": "benefactor",
          "type": "address"
        },
        {
          "indexed": false,
          "internalType": "uint256",
          "name": "goal",
          "type": "uint256"
        },
        {
          "indexed": false,
          "internalType": "uint256",
          "name": "deadline",
          "type": "uint256"
        }
      ],
      "name": "NewCampaignCreated",
      "type": "event"
    },
    {
      "inputs": [],
      "name": "campaignNumber",
      "outputs": [
        {
          "internalType": "uint256",
          "name": "",
          "type": "uint256"
        }
      ],
      "stateMutability": "view",
      "type": "function"
    },
    {
      "inputs": [
        {
          "internalType": "uint256",
          "name": "",
          "type": "uint256"
        }
      ],
      "name": "campaigns",
      "outputs": [
        {
          "internalType": "string",
          "name": "title",
          "type": "string"
        },
        {
          "internalType": "string",
          "name": "description",
          "type": "string"
        },
        {
          "internalType": "address payable",
          "name": "benefactor",
          "type": "address"
        },
        {
          "internalType": "uint256",
          "name": "goal",
          "type": "uint256"
        },
        {
          "internalType": "uint256",
          "name": "deadline",
          "type": "uint256"
        },
        {
          "internalType": "uint256",
          "name": "amountRaised",
          "type": "uint256"
        },
        {
          "internalType": "bool",
          "name": "ended",
          "type": "bool"
        }
      ],
      "stateMutability": "view",
      "type": "function"
    },
    {
      "inputs": [
        {
          "internalType": "string",
          "name": "_title",
          "type": "string"
        },
        {
          "internalType": "string",
          "name": "_description",
          "type": "string"
        },
        {
          "internalType": "address payable",
          "name": "_benefactor",
          "type": "address"
        },
        {
          "internalType": "uint256",
          "name": "_goal",
          "type": "uint256"
        },
        {
          "internalType": "uint256",
          "name": "_CampaignDurationInSeconds",
          "type": "uint256"
        }
      ],
      "name": "createCampaign",
      "outputs": [],
      "stateMutability": "nonpayable",
      "type": "function"
    },
    {
      "inputs": [
        {
          "internalType": "uint256",
          "name": "_campaignId",
          "type": "uint256"
        }
      ],
      "name": "donateToCampaign",
      "outputs": [],
      "stateMutability": "payable",
      "type": "function"
    },
    {
      "inputs": [
        {
          "internalType": "uint256",
          "name": "_campaignId",
          "type": "uint256"
        }
      ],
      "name": "endCampaign",
      "outputs": [],
      "stateMutability": "nonpayable",
      "type": "function"
    },
    {
      "inputs": [],
      "name": "owner",
      "outputs": [
        {
          "internalType": "address",
          "name": "",
          "type": "address"
        }
      ],
      "stateMutability": "view",
      "type": "function"
    },
    {
      "inputs": [],
      "name": "withdraw",
      "outputs": [],
      "stateMutability": "nonpayable",
      "type": "function"
    }
  ],
  "bytecode": "0x608060405234801561001057600080fd5b5033600260006101000a81548173ffffffffffffffffffffffffffffffffffffffff021916908373ffffffffffffffffffffffffffffffffffffffff16021790555061171e806100616000396000f3fe6080604052600436106100705760003560e01c80638da5cb5b1161004e5780638da5cb5b146100eb5780639304d12414610116578063cce614fc1461013f578063dd0408ae1461016a57610070565b8063141961bc146100755780633ccfd60b146100b857806342a4fda8146100cf575b600080fd5b34801561008157600080fd5b5061009c600480360381019061009791906109df565b610193565b6040516100af9796959493929190610b07565b60405180910390f35b3480156100c457600080fd5b506100cd610312565b005b6100e960048036038101906100e491906109df565b610456565b005b3480156100f757600080fd5b506101006105a8565b60405161010d9190610ba5565b60405180910390f35b34801561012257600080fd5b5061013d60048036038101906101389190610d21565b6105ce565b005b34801561014b57600080fd5b506101546107dc565b6040516101619190610dd4565b60405180910390f35b34801561017657600080fd5b50610191600480360381019061018c91906109df565b6107e2565b005b60006020528060005260406000206000915090508060000180546101b690610e1e565b80601f01602080910402602001604051908101604052809291908181526020018280546101e290610e1e565b801561022f5780601f106102045761010080835404028352916020019161022f565b820191906000526020600020905b81548152906001019060200180831161021257829003601f168201915b50505050509080600101805461024490610e1e565b80601f016020809104026020016040519081016040528092919081815260200182805461027090610e1e565b80156102bd5780601f10610292576101008083540402835291602001916102bd565b820191906000526020600020905b8154815290600101906020018083116102a057829003601f168201915b5050505050908060020160009054906101000a900473ffffffffffffffffffffffffffffffffffffffff16908060030154908060040154908060050154908060060160009054906101000a900460ff16905087565b600260009054906101000a900473ffffffffffffffffffffffffffffffffffffffff1673ffffffffffffffffffffffffffffffffffffffff163373ffffffffffffffffffffffffffffffffffffffff16146103a2576040517f08c379a000000000000000000000000000000000000000000000000000000000815260040161039990610e9b565b60405180910390fd5b6000479050600081116103ea576040517f08c379a00000000000000000000000000000000000000000000000000000000081526004016103e190610f07565b60405180910390fd5b600260009054906101000a900473ffffffffffffffffffffffffffffffffffffffff1673ffffffffffffffffffffffffffffffffffffffff166108fc829081150290604051600060405180830381858888f19350505050158015610452573d6000803e3d6000fd5b5050565b6000806000838152602001908152602001600020905080600401544211156104b3576040517f08c379a00000000000000000000000000000000000000000000000000000000081526004016104aa90610f73565b60405180910390fd5b600034116104f6576040517f08c379a00000000000000000000000000000000000000000000000000000000081526004016104ed90611005565b60405180910390fd5b600015158160060160009054906101000a900460ff1615151461054e576040517f08c379a000000000000000000000000000000000000000000000000000000000815260040161054590611071565b60405180910390fd5b3481600501600082825461056291906110c0565b925050819055507f0b5b4c52969ff7329ecf7ee536409fda87812b15a8622bc6e8cdeab3aee14a2682333460405161059c939291906110f4565b60405180910390a15050565b600260009054906101000a900473ffffffffffffffffffffffffffffffffffffffff1681565b60008211610611576040517f08c379a00000000000000000000000000000000000000000000000000000000081526004016106089061119d565b60405180910390fd5b60008111610654576040517f08c379a000000000000000000000000000000000000000000000000000000000815260040161064b9061122f565b60405180910390fd5b600160008154809291906106679061124f565b91905055506000814261067a91906110c0565b90506040518060e001604052808781526020018681526020018573ffffffffffffffffffffffffffffffffffffffff1681526020018481526020018281526020016000815260200160001515815250600080600154815260200190815260200160002060008201518160000190816106f29190611443565b5060208201518160010190816107089190611443565b5060408201518160020160006101000a81548173ffffffffffffffffffffffffffffffffffffffff021916908373ffffffffffffffffffffffffffffffffffffffff160217905550606082015181600301556080820151816004015560a0820151816005015560c08201518160060160006101000a81548160ff0219169083151502179055509050507f568ca87fa8b8e46081d8a05238f666a62aed6dd01ec0ab3a97da697a91b91c7460015487878787866040516107cc9695949392919061156a565b60405180910390a1505050505050565b60015481565b600080600083815260200190815260200160002090508060040154421161083e576040517f08c379a000000000000000000000000000000000000000000000000000000000815260040161083590611625565b60405180910390fd5b600015158160060160009054906101000a900460ff16151514610896576040517f08c379a000000000000000000000000000000000000000000000000000000000815260040161088d90611691565b60405180910390fd5b60018160060160006101000a81548160ff021916908315150217905550600081600501549050600082600501819055508160020160009054906101000a900473ffffffffffffffffffffffffffffffffffffffff1673ffffffffffffffffffffffffffffffffffffffff166108fc829081150290604051600060405180830381858888f19350505050158015610930573d6000803e3d6000fd5b507f245a9379f1ec03f73aaedf7ca0b37fb752d67159a6c6a87e0020d39174207ba6838360020160009054906101000a900473ffffffffffffffffffffffffffffffffffffffff1683604051610988939291906116b1565b60405180910390a1505050565b6000604051905090565b600080fd5b600080fd5b6000819050919050565b6109bc816109a9565b81146109c757600080fd5b50565b6000813590506109d9816109b3565b92915050565b6000602082840312156109f5576109f461099f565b5b6000610a03848285016109ca565b91505092915050565b600081519050919050565b600082825260208201905092915050565b60005b83811015610a46578082015181840152602081019050610a2b565b60008484015250505050565b6000601f19601f8301169050919050565b6000610a6e82610a0c565b610a788185610a17565b9350610a88818560208601610a28565b610a9181610a52565b840191505092915050565b600073ffffffffffffffffffffffffffffffffffffffff82169050919050565b6000610ac782610a9c565b9050919050565b610ad781610abc565b82525050565b610ae6816109a9565b82525050565b60008115159050919050565b610b0181610aec565b82525050565b600060e0820190508181036000830152610b21818a610a63565b90508181036020830152610b358189610a63565b9050610b446040830188610ace565b610b516060830187610add565b610b5e6080830186610add565b610b6b60a0830185610add565b610b7860c0830184610af8565b98975050505050505050565b6000610b8f82610a9c565b9050919050565b610b9f81610b84565b82525050565b6000602082019050610bba6000830184610b96565b92915050565b600080fd5b600080fd5b7f4e487b7100000000000000000000000000000000000000000000000000000000600052604160045260246000fd5b610c0282610a52565b810181811067ffffffffffffffff82111715610c2157610c20610bca565b5b80604052505050565b6000610c34610995565b9050610c408282610bf9565b919050565b600067ffffffffffffffff821115610c6057610c5f610bca565b5b610c6982610a52565b9050602081019050919050565b82818337600083830152505050565b6000610c98610c9384610c45565b610c2a565b905082815260208101848484011115610cb457610cb3610bc5565b5b610cbf848285610c76565b509392505050565b600082601f830112610cdc57610cdb610bc0565b5b8135610cec848260208601610c85565b91505092915050565b610cfe81610abc565b8114610d0957600080fd5b50565b600081359050610d1b81610cf5565b92915050565b600080600080600060a08688031215610d3d57610d3c61099f565b5b600086013567ffffffffffffffff811115610d5b57610d5a6109a4565b5b610d6788828901610cc7565b955050602086013567ffffffffffffffff811115610d8857610d876109a4565b5b610d9488828901610cc7565b9450506040610da588828901610d0c565b9350506060610db6888289016109ca565b9250506080610dc7888289016109ca565b9150509295509295909350565b6000602082019050610de96000830184610add565b92915050565b7f4e487b7100000000000000000000000000000000000000000000000000000000600052602260045260246000fd5b60006002820490506001821680610e3657607f821691505b602082108103610e4957610e48610def565b5b50919050565b7f4e6f742074686520636f6e7472616374206f776e657200000000000000000000600082015250565b6000610e85601683610a17565b9150610e9082610e4f565b602082019050919050565b60006020820190508181036000830152610eb481610e78565b9050919050565b7f4e6f2066756e647320746f207769746864726177000000000000000000000000600082015250565b6000610ef1601483610a17565b9150610efc82610ebb565b602082019050919050565b60006020820190508181036000830152610f2081610ee4565b9050919050565b7f43616d706169676e206973206e6f206c6f6e67657220676f696e67206f6e0000600082015250565b6000610f5d601e83610a17565b9150610f6882610f27565b602082019050919050565b60006020820190508181036000830152610f8c81610f50565b9050919050565b7f446f6e6174696f6e20616d6f756e74206d75737420626520677265617465722060008201527f7468616e20300000000000000000000000000000000000000000000000000000602082015250565b6000610fef602683610a17565b9150610ffa82610f93565b604082019050919050565b6000602082019050818103600083015261101e81610fe2565b9050919050565b7f43616d706169676e20616c726561647920656e64656400000000000000000000600082015250565b600061105b601683610a17565b915061106682611025565b602082019050919050565b6000602082019050818103600083015261108a8161104e565b9050919050565b7f4e487b7100000000000000000000000000000000000000000000000000000000600052601160045260246000fd5b60006110cb826109a9565b91506110d6836109a9565b92508282019050808211156110ee576110ed611091565b5b92915050565b60006060820190506111096000830186610add565b6111166020830185610b96565b6111236040830184610add565b949350505050565b7f43616d706169676e20476f616c2073686f756c6420626520677265617465722060008201527f7468616e20300000000000000000000000000000000000000000000000000000602082015250565b6000611187602683610a17565b91506111928261112b565b604082019050919050565b600060208201905081810360008301526111b68161117a565b9050919050565b7f43616d61706169676e204475726174696f6e2073686f756c642062652067726560008201527f61746572207468616e2030000000000000000000000000000000000000000000602082015250565b6000611219602b83610a17565b9150611224826111bd565b604082019050919050565b600060208201905081810360008301526112488161120c565b9050919050565b600061125a826109a9565b91507fffffffffffffffffffffffffffffffffffffffffffffffffffffffffffffffff820361128c5761128b611091565b5b600182019050919050565b60008190508160005260206000209050919050565b60006020601f8301049050919050565b600082821b905092915050565b6000600883026112f97fffffffffffffffffffffffffffffffffffffffffffffffffffffffffffffffff826112bc565b61130386836112bc565b95508019841693508086168417925050509392505050565b6000819050919050565b600061134061133b611336846109a9565b61131b565b6109a9565b9050919050565b6000819050919050565b61135a83611325565b61136e61136682611347565b8484546112c9565b825550505050565b600090565b611383611376565b61138e818484611351565b505050565b5b818110156113b2576113a760008261137b565b600181019050611394565b5050565b601f8211156113f7576113c881611297565b6113d1846112ac565b810160208510156113e0578190505b6113f46113ec856112ac565b830182611393565b50505b505050565b600082821c905092915050565b600061141a600019846008026113fc565b1980831691505092915050565b60006114338383611409565b9150826002028217905092915050565b61144c82610a0c565b67ffffffffffffffff81111561146557611464610bca565b5b61146f8254610e1e565b61147a8282856113b6565b600060209050601f8311600181146114ad576000841561149b578287015190505b6114a58582611427565b86555061150d565b601f1984166114bb86611297565b60005b828110156114e3578489015182556001820191506020850194506020810190506114be565b8683101561150057848901516114fc601f891682611409565b8355505b6001600288020188555050505b505050505050565b600061153061152b61152684610a9c565b61131b565b610a9c565b9050919050565b600061154282611515565b9050919050565b600061155482611537565b9050919050565b61156481611549565b82525050565b600060c08201905061157f6000830189610add565b81810360208301526115918188610a63565b905081810360408301526115a58187610a63565b90506115b4606083018661155b565b6115c16080830185610add565b6115ce60a0830184610add565b979650505050505050565b7f5468652043616d706169676e206973207374696c6c20676f696e67206f6e0000600082015250565b600061160f601e83610a17565b915061161a826115d9565b602082019050919050565b6000602082019050818103600083015261163e81611602565b9050919050565b7f5468652043616d706169676e20616c726561647920656e646564000000000000600082015250565b600061167b601a83610a17565b915061168682611645565b602082019050919050565b600060208201905081810360008301526116aa8161166e565b9050919050565b60006060820190506116c66000830186610add565b6116d3602083018561155b565b6116e06040830184610add565b94935050505056fea2646970667358221220fbdc321363793f5ab3e753cdba5c765be79e8521a3d878edcfe0e5590447774664736f6c63430008180033",
  "linkReferences": {},
  "deployedLinkReferences": {}
}