{
  "_format": "hh-sol-artifact-1",
  "contractName": "Dice",
  "sourceName": "contracts/Dice.sol",
  "abi": [
    {
      "inputs": [],
      "stateMutability": "nonpayable",
      "type": "constructor"
    },
    {
      "inputs": [],
      "name": "owner",
      "outputs": [
        {
          "internalType": "address",
          "name": "",
          "type": "address"
        }
      ],
      "stateMutability": "view",
      "type": "function"
    },
    {
      "inputs": [],
      "name": "throwDice",
      "outputs": [
        {
          "internalType": "uint256",
          "name": "",
          "type": "uint256"
        },
        {
          "internalType": "uint256",
          "name": "",
          "type": "uint256"
        }
      ],
      "stateMutability": "view",
      "type": "function"
    }
  ],
  "bytecode": "0x608060405234801561001057600080fd5b50336000806101000a81548173ffffffffffffffffffffffffffffffffffffffff021916908373ffffffffffffffffffffffffffffffffffffffff1602179055506105ee806100606000396000f3fe608060405234801561001057600080fd5b50600436106100365760003560e01c806305d660f81461003b5780638da5cb5b1461005a575b600080fd5b610043610078565b604051610051929190610279565b60405180910390f35b61006261023c565b60405161006f91906102e3565b60405180910390f35b60008060008054906101000a900473ffffffffffffffffffffffffffffffffffffffff1673ffffffffffffffffffffffffffffffffffffffff163373ffffffffffffffffffffffffffffffffffffffff1614610109576040517f08c379a000000000000000000000000000000000000000000000000000000000815260040161010090610381565b60405180910390fd5b600073ffffffffffffffffffffffffffffffffffffffff163373ffffffffffffffffffffffffffffffffffffffff1603610178576040517f08c379a000000000000000000000000000000000000000000000000000000000815260040161016f906103ed565b60405180910390fd5b600042443360405160200161018f93929190610476565b6040516020818303038152906040528051906020012060001c905060006003426101b991906104e2565b44336040516020016101cd93929190610476565b6040516020818303038152906040528051906020012060001c9050600060016006846101f99190610553565b6102039190610584565b9050600060016006846102169190610553565b6102209190610584565b905081818160ff1691508060ff16905095509550505050509091565b60008054906101000a900473ffffffffffffffffffffffffffffffffffffffff1681565b6000819050919050565b61027381610260565b82525050565b600060408201905061028e600083018561026a565b61029b602083018461026a565b9392505050565b600073ffffffffffffffffffffffffffffffffffffffff82169050919050565b60006102cd826102a2565b9050919050565b6102dd816102c2565b82525050565b60006020820190506102f860008301846102d4565b92915050565b600082825260208201905092915050565b7f4f6e6c79206f776e65722063616e20706572666f726d2074686973206163746960008201527f6f6e000000000000000000000000000000000000000000000000000000000000602082015250565b600061036b6022836102fe565b91506103768261030f565b604082019050919050565b6000602082019050818103600083015261039a8161035e565b9050919050565b7f6164647265737320302064657465637465640000000000000000000000000000600082015250565b60006103d76012836102fe565b91506103e2826103a1565b602082019050919050565b60006020820190508181036000830152610406816103ca565b9050919050565b6000819050919050565b61042861042382610260565b61040d565b82525050565b60008160601b9050919050565b60006104468261042e565b9050919050565b60006104588261043b565b9050919050565b61047061046b826102c2565b61044d565b82525050565b60006104828286610417565b6020820191506104928285610417565b6020820191506104a2828461045f565b601482019150819050949350505050565b7f4e487b7100000000000000000000000000000000000000000000000000000000600052601160045260246000fd5b60006104ed82610260565b91506104f883610260565b925082820261050681610260565b9150828204841483151761051d5761051c6104b3565b5b5092915050565b7f4e487b7100000000000000000000000000000000000000000000000000000000600052601260045260246000fd5b600061055e82610260565b915061056983610260565b92508261057957610578610524565b5b828206905092915050565b600061058f82610260565b915061059a83610260565b92508282019050808211156105b2576105b16104b3565b5b9291505056fea264697066735822122035d894f72afe7af868f5292320efc1fe13c010f019891e2a2b08521cf31bd69664736f6c63430008180033",
  "linkReferences": {},
  "deployedLinkReferences": {}
}