{
  "_format": "hh-sol-artifact-1",
  "contractName": "MarketplaceNFT",
  "sourceName": "contracts/NFT.sol",
  "abi": [
    {
      "inputs": [],
      "stateMutability": "nonpayable",
      "type": "constructor"
    },
    {
      "inputs": [
        {
          "internalType": "address",
          "name": "sender",
          "type": "address"
        },
        {
          "internalType": "uint256",
          "name": "tokenId",
          "type": "uint256"
        },
        {
          "internalType": "address",
          "name": "owner",
          "type": "address"
        }
      ],
      "name": "ERC721IncorrectOwner",
      "type": "error"
    },
    {
      "inputs": [
        {
          "internalType": "address",
          "name": "operator",
          "type": "address"
        },
        {
          "internalType": "uint256",
          "name": "tokenId",
          "type": "uint256"
        }
      ],
      "name": "ERC721InsufficientApproval",
      "type": "error"
    },
    {
      "inputs": [
        {
          "internalType": "address",
          "name": "approver",
          "type": "address"
        }
      ],
      "name": "ERC721InvalidApprover",
      "type": "error"
    },
    {
      "inputs": [
        {
          "internalType": "address",
          "name": "operator",
          "type": "address"
        }
      ],
      "name": "ERC721InvalidOperator",
      "type": "error"
    },
    {
      "inputs": [
        {
          "internalType": "address",
          "name": "owner",
          "type": "address"
        }
      ],
      "name": "ERC721InvalidOwner",
      "type": "error"
    },
    {
      "inputs": [
        {
          "internalType": "address",
          "name": "receiver",
          "type": "address"
        }
      ],
      "name": "ERC721InvalidReceiver",
      "type": "error"
    },
    {
      "inputs": [
        {
          "internalType": "address",
          "name": "sender",
          "type": "address"
        }
      ],
      "name": "ERC721InvalidSender",
      "type": "error"
    },
    {
      "inputs": [
        {
          "internalType": "uint256",
          "name": "tokenId",
          "type": "uint256"
        }
      ],
      "name": "ERC721NonexistentToken",
      "type": "error"
    },
    {
      "inputs": [],
      "name": "NotOwner",
      "type": "error"
    },
    {
      "anonymous": false,
      "inputs": [
        {
          "indexed": true,
          "internalType": "address",
          "name": "owner",
          "type": "address"
        },
        {
          "indexed": true,
          "internalType": "address",
          "name": "approved",
          "type": "address"
        },
        {
          "indexed": true,
          "internalType": "uint256",
          "name": "tokenId",
          "type": "uint256"
        }
      ],
      "name": "Approval",
      "type": "event"
    },
    {
      "anonymous": false,
      "inputs": [
        {
          "indexed": true,
          "internalType": "address",
          "name": "owner",
          "type": "address"
        },
        {
          "indexed": true,
          "internalType": "address",
          "name": "operator",
          "type": "address"
        },
        {
          "indexed": false,
          "internalType": "bool",
          "name": "approved",
          "type": "bool"
        }
      ],
      "name": "ApprovalForAll",
      "type": "event"
    },
    {
      "anonymous": false,
      "inputs": [
        {
          "indexed": false,
          "internalType": "address",
          "name": "receiver",
          "type": "address"
        },
        {
          "indexed": false,
          "internalType": "uint256",
          "name": "Id",
          "type": "uint256"
        }
      ],
      "name": "NftMinted",
      "type": "event"
    },
    {
      "anonymous": false,
      "inputs": [
        {
          "indexed": true,
          "internalType": "address",
          "name": "from",
          "type": "address"
        },
        {
          "indexed": true,
          "internalType": "address",
          "name": "to",
          "type": "address"
        },
        {
          "indexed": true,
          "internalType": "uint256",
          "name": "tokenId",
          "type": "uint256"
        }
      ],
      "name": "Transfer",
      "type": "event"
    },
    {
      "inputs": [
        {
          "internalType": "address",
          "name": "to",
          "type": "address"
        },
        {
          "internalType": "uint256",
          "name": "tokenId",
          "type": "uint256"
        }
      ],
      "name": "approve",
      "outputs": [],
      "stateMutability": "nonpayable",
      "type": "function"
    },
    {
      "inputs": [
        {
          "internalType": "address",
          "name": "owner",
          "type": "address"
        }
      ],
      "name": "balanceOf",
      "outputs": [
        {
          "internalType": "uint256",
          "name": "",
          "type": "uint256"
        }
      ],
      "stateMutability": "view",
      "type": "function"
    },
    {
      "inputs": [
        {
          "internalType": "uint256",
          "name": "tokenId",
          "type": "uint256"
        }
      ],
      "name": "getApproved",
      "outputs": [
        {
          "internalType": "address",
          "name": "",
          "type": "address"
        }
      ],
      "stateMutability": "view",
      "type": "function"
    },
    {
      "inputs": [
        {
          "internalType": "address",
          "name": "owner",
          "type": "address"
        },
        {
          "internalType": "address",
          "name": "operator",
          "type": "address"
        }
      ],
      "name": "isApprovedForAll",
      "outputs": [
        {
          "internalType": "bool",
          "name": "",
          "type": "bool"
        }
      ],
      "stateMutability": "view",
      "type": "function"
    },
    {
      "inputs": [
        {
          "internalType": "address",
          "name": "to",
          "type": "address"
        }
      ],
      "name": "mint",
      "outputs": [],
      "stateMutability": "nonpayable",
      "type": "function"
    },
    {
      "inputs": [],
      "name": "name",
      "outputs": [
        {
          "internalType": "string",
          "name": "",
          "type": "string"
        }
      ],
      "stateMutability": "view",
      "type": "function"
    },
    {
      "inputs": [],
      "name": "owner",
      "outputs": [
        {
          "internalType": "address",
          "name": "",
          "type": "address"
        }
      ],
      "stateMutability": "view",
      "type": "function"
    },
    {
      "inputs": [
        {
          "internalType": "uint256",
          "name": "tokenId",
          "type": "uint256"
        }
      ],
      "name": "ownerOf",
      "outputs": [
        {
          "internalType": "address",
          "name": "",
          "type": "address"
        }
      ],
      "stateMutability": "view",
      "type": "function"
    },
    {
      "inputs": [
        {
          "internalType": "address",
          "name": "from",
          "type": "address"
        },
        {
          "internalType": "address",
          "name": "to",
          "type": "address"
        },
        {
          "internalType": "uint256",
          "name": "tokenId",
          "type": "uint256"
        }
      ],
      "name": "safeTransferFrom",
      "outputs": [],
      "stateMutability": "nonpayable",
      "type": "function"
    },
    {
      "inputs": [
        {
          "internalType": "address",
          "name": "from",
          "type": "address"
        },
        {
          "internalType": "address",
          "name": "to",
          "type": "address"
        },
        {
          "internalType": "uint256",
          "name": "tokenId",
          "type": "uint256"
        },
        {
          "internalType": "bytes",
          "name": "data",
          "type": "bytes"
        }
      ],
      "name": "safeTransferFrom",
      "outputs": [],
      "stateMutability": "nonpayable",
      "type": "function"
    },
    {
      "inputs": [
        {
          "internalType": "address",
          "name": "operator",
          "type": "address"
        },
        {
          "internalType": "bool",
          "name": "approved",
          "type": "bool"
        }
      ],
      "name": "setApprovalForAll",
      "outputs": [],
      "stateMutability": "nonpayable",
      "type": "function"
    },
    {
      "inputs": [
        {
          "internalType": "bytes4",
          "name": "interfaceId",
          "type": "bytes4"
        }
      ],
      "name": "supportsInterface",
      "outputs": [
        {
          "internalType": "bool",
          "name": "",
          "type": "bool"
        }
      ],
      "stateMutability": "view",
      "type": "function"
    },
    {
      "inputs": [],
      "name": "symbol",
      "outputs": [
        {
          "internalType": "string",
          "name": "",
          "type": "string"
        }
      ],
      "stateMutability": "view",
      "type": "function"
    },
    {
      "inputs": [],
      "name": "tokenId",
      "outputs": [
        {
          "internalType": "uint256",
          "name": "",
          "type": "uint256"
        }
      ],
      "stateMutability": "view",
      "type": "function"
    },
    {
      "inputs": [
        {
          "internalType": "uint256",
          "name": "tokenId",
          "type": "uint256"
        }
      ],
      "name": "tokenURI",
      "outputs": [
        {
          "internalType": "string",
          "name": "",
          "type": "string"
        }
      ],
      "stateMutability": "view",
      "type": "function"
    },
    {
      "inputs": [
        {
          "internalType": "address",
          "name": "from",
          "type": "address"
        },
        {
          "internalType": "address",
          "name": "to",
          "type": "address"
        },
        {
          "internalType": "uint256",
          "name": "tokenId",
          "type": "uint256"
        }
      ],
      "name": "transferFrom",
      "outputs": [],
      "stateMutability": "nonpayable",
      "type": "function"
    }
  ],
  "bytecode": "0x60806040523480156200001157600080fd5b506040518060400160405280600f81526020017f4d61726b6574706c616365204e465400000000000000000000000000000000008152506040518060400160405280600481526020017f4d4e46540000000000000000000000000000000000000000000000000000000081525081600090816200008f91906200036d565b508060019081620000a191906200036d565b50505033600660006101000a81548173ffffffffffffffffffffffffffffffffffffffff021916908373ffffffffffffffffffffffffffffffffffffffff160217905550600060078190555062000454565b600081519050919050565b7f4e487b7100000000000000000000000000000000000000000000000000000000600052604160045260246000fd5b7f4e487b7100000000000000000000000000000000000000000000000000000000600052602260045260246000fd5b600060028204905060018216806200017557607f821691505b6020821081036200018b576200018a6200012d565b5b50919050565b60008190508160005260206000209050919050565b60006020601f8301049050919050565b600082821b905092915050565b600060088302620001f57fffffffffffffffffffffffffffffffffffffffffffffffffffffffffffffffff82620001b6565b620002018683620001b6565b95508019841693508086168417925050509392505050565b6000819050919050565b6000819050919050565b60006200024e62000248620002428462000219565b62000223565b62000219565b9050919050565b6000819050919050565b6200026a836200022d565b62000282620002798262000255565b848454620001c3565b825550505050565b600090565b620002996200028a565b620002a68184846200025f565b505050565b5b81811015620002ce57620002c26000826200028f565b600181019050620002ac565b5050565b601f8211156200031d57620002e78162000191565b620002f284620001a6565b8101602085101562000302578190505b6200031a6200031185620001a6565b830182620002ab565b50505b505050565b600082821c905092915050565b6000620003426000198460080262000322565b1980831691505092915050565b60006200035d83836200032f565b9150826002028217905092915050565b6200037882620000f3565b67ffffffffffffffff811115620003945762000393620000fe565b5b620003a082546200015c565b620003ad828285620002d2565b600060209050601f831160018114620003e55760008415620003d0578287015190505b620003dc85826200034f565b8655506200044c565b601f198416620003f58662000191565b60005b828110156200041f57848901518255600182019150602085019450602081019050620003f8565b868310156200043f57848901516200043b601f8916826200032f565b8355505b6001600288020188555050505b505050505050565b6120b680620004646000396000f3fe608060405234801561001057600080fd5b50600436106101005760003560e01c80636a62784211610097578063a22cb46511610066578063a22cb465146102ad578063b88d4fde146102c9578063c87b56dd146102e5578063e985e9c51461031557610100565b80636a6278421461022557806370a08231146102415780638da5cb5b1461027157806395d89b411461028f57610100565b806317d70f7c116100d357806317d70f7c1461019f57806323b872dd146101bd57806342842e0e146101d95780636352211e146101f557610100565b806301ffc9a71461010557806306fdde0314610135578063081812fc14610153578063095ea7b314610183575b600080fd5b61011f600480360381019061011a91906117f7565b610345565b60405161012c919061183f565b60405180910390f35b61013d610427565b60405161014a91906118ea565b60405180910390f35b61016d60048036038101906101689190611942565b6104b9565b60405161017a91906119b0565b60405180910390f35b61019d600480360381019061019891906119f7565b6104d5565b005b6101a76104eb565b6040516101b49190611a46565b60405180910390f35b6101d760048036038101906101d29190611a61565b6104f1565b005b6101f360048036038101906101ee9190611a61565b6105f3565b005b61020f600480360381019061020a9190611942565b610613565b60405161021c91906119b0565b60405180910390f35b61023f600480360381019061023a9190611ab4565b610625565b005b61025b60048036038101906102569190611ab4565b61071f565b6040516102689190611a46565b60405180910390f35b6102796107d9565b60405161028691906119b0565b60405180910390f35b6102976107ff565b6040516102a491906118ea565b60405180910390f35b6102c760048036038101906102c29190611b0d565b610891565b005b6102e360048036038101906102de9190611c82565b6108a7565b005b6102ff60048036038101906102fa9190611942565b6108c4565b60405161030c91906118ea565b60405180910390f35b61032f600480360381019061032a9190611d05565b61092d565b60405161033c919061183f565b60405180910390f35b60007f80ac58cd000000000000000000000000000000000000000000000000000000007bffffffffffffffffffffffffffffffffffffffffffffffffffffffff1916827bffffffffffffffffffffffffffffffffffffffffffffffffffffffff1916148061041057507f5b5e139f000000000000000000000000000000000000000000000000000000007bffffffffffffffffffffffffffffffffffffffffffffffffffffffff1916827bffffffffffffffffffffffffffffffffffffffffffffffffffffffff1916145b80610420575061041f826109c1565b5b9050919050565b60606000805461043690611d74565b80601f016020809104026020016040519081016040528092919081815260200182805461046290611d74565b80156104af5780601f10610484576101008083540402835291602001916104af565b820191906000526020600020905b81548152906001019060200180831161049257829003601f168201915b5050505050905090565b60006104c482610a2b565b506104ce82610ab3565b9050919050565b6104e782826104e2610af0565b610af8565b5050565b60075481565b600073ffffffffffffffffffffffffffffffffffffffff168273ffffffffffffffffffffffffffffffffffffffff16036105635760006040517f64a0ae9200000000000000000000000000000000000000000000000000000000815260040161055a91906119b0565b60405180910390fd5b60006105778383610572610af0565b610b0a565b90508373ffffffffffffffffffffffffffffffffffffffff168173ffffffffffffffffffffffffffffffffffffffff16146105ed578382826040517f64283d7b0000000000000000000000000000000000000000000000000000000081526004016105e493929190611da5565b60405180910390fd5b50505050565b61060e838383604051806020016040528060008152506108a7565b505050565b600061061e82610a2b565b9050919050565b600660009054906101000a900473ffffffffffffffffffffffffffffffffffffffff1673ffffffffffffffffffffffffffffffffffffffff163373ffffffffffffffffffffffffffffffffffffffff16146106b5576040517f08c379a00000000000000000000000000000000000000000000000000000000081526004016106ac90611e4e565b60405180910390fd5b6000600760008154809291906106ca90611e9d565b9190505590506106d8610d24565b6106e28282610dad565b7ff2b290a76feb54be358b555507421d765609171aefa0646f109a653228ff81b88282604051610713929190611ee5565b60405180910390a15050565b60008073ffffffffffffffffffffffffffffffffffffffff168273ffffffffffffffffffffffffffffffffffffffff16036107925760006040517f89c62b6400000000000000000000000000000000000000000000000000000000815260040161078991906119b0565b60405180910390fd5b600360008373ffffffffffffffffffffffffffffffffffffffff1673ffffffffffffffffffffffffffffffffffffffff168152602001908152602001600020549050919050565b600660009054906101000a900473ffffffffffffffffffffffffffffffffffffffff1681565b60606001805461080e90611d74565b80601f016020809104026020016040519081016040528092919081815260200182805461083a90611d74565b80156108875780601f1061085c57610100808354040283529160200191610887565b820191906000526020600020905b81548152906001019060200180831161086a57829003601f168201915b5050505050905090565b6108a361089c610af0565b8383610ea6565b5050565b6108b28484846104f1565b6108be84848484611015565b50505050565b60606108cf82610a2b565b5060006108da6111cc565b905060008151116108fa5760405180602001604052806000815250610925565b80610904846111e3565b604051602001610915929190611f4a565b6040516020818303038152906040525b915050919050565b6000600560008473ffffffffffffffffffffffffffffffffffffffff1673ffffffffffffffffffffffffffffffffffffffff16815260200190815260200160002060008373ffffffffffffffffffffffffffffffffffffffff1673ffffffffffffffffffffffffffffffffffffffff16815260200190815260200160002060009054906101000a900460ff16905092915050565b60007f01ffc9a7000000000000000000000000000000000000000000000000000000007bffffffffffffffffffffffffffffffffffffffffffffffffffffffff1916827bffffffffffffffffffffffffffffffffffffffffffffffffffffffff1916149050919050565b600080610a37836112b1565b9050600073ffffffffffffffffffffffffffffffffffffffff168173ffffffffffffffffffffffffffffffffffffffff1603610aaa57826040517f7e273289000000000000000000000000000000000000000000000000000000008152600401610aa19190611a46565b60405180910390fd5b80915050919050565b60006004600083815260200190815260200160002060009054906101000a900473ffffffffffffffffffffffffffffffffffffffff169050919050565b600033905090565b610b0583838360016112ee565b505050565b600080610b16846112b1565b9050600073ffffffffffffffffffffffffffffffffffffffff168373ffffffffffffffffffffffffffffffffffffffff1614610b5857610b578184866114b3565b5b600073ffffffffffffffffffffffffffffffffffffffff168173ffffffffffffffffffffffffffffffffffffffff1614610be957610b9a6000856000806112ee565b6001600360008373ffffffffffffffffffffffffffffffffffffffff1673ffffffffffffffffffffffffffffffffffffffff168152602001908152602001600020600082825403925050819055505b600073ffffffffffffffffffffffffffffffffffffffff168573ffffffffffffffffffffffffffffffffffffffff1614610c6c576001600360008773ffffffffffffffffffffffffffffffffffffffff1673ffffffffffffffffffffffffffffffffffffffff168152602001908152602001600020600082825401925050819055505b846002600086815260200190815260200160002060006101000a81548173ffffffffffffffffffffffffffffffffffffffff021916908373ffffffffffffffffffffffffffffffffffffffff160217905550838573ffffffffffffffffffffffffffffffffffffffff168273ffffffffffffffffffffffffffffffffffffffff167fddf252ad1be2c89b69c2b068fc378daa952ba7f163c4a11628f55a4df523b3ef60405160405180910390a4809150509392505050565b600660009054906101000a900473ffffffffffffffffffffffffffffffffffffffff1673ffffffffffffffffffffffffffffffffffffffff163373ffffffffffffffffffffffffffffffffffffffff1614610dab576040517f30cd747100000000000000000000000000000000000000000000000000000000815260040160405180910390fd5b565b600073ffffffffffffffffffffffffffffffffffffffff168273ffffffffffffffffffffffffffffffffffffffff1603610e1f5760006040517f64a0ae92000000000000000000000000000000000000000000000000000000008152600401610e1691906119b0565b60405180910390fd5b6000610e2d83836000610b0a565b9050600073ffffffffffffffffffffffffffffffffffffffff168173ffffffffffffffffffffffffffffffffffffffff1614610ea15760006040517f73c6ac6e000000000000000000000000000000000000000000000000000000008152600401610e9891906119b0565b60405180910390fd5b505050565b600073ffffffffffffffffffffffffffffffffffffffff168273ffffffffffffffffffffffffffffffffffffffff1603610f1757816040517f5b08ba18000000000000000000000000000000000000000000000000000000008152600401610f0e91906119b0565b60405180910390fd5b80600560008573ffffffffffffffffffffffffffffffffffffffff1673ffffffffffffffffffffffffffffffffffffffff16815260200190815260200160002060008473ffffffffffffffffffffffffffffffffffffffff1673ffffffffffffffffffffffffffffffffffffffff16815260200190815260200160002060006101000a81548160ff0219169083151502179055508173ffffffffffffffffffffffffffffffffffffffff168373ffffffffffffffffffffffffffffffffffffffff167f17307eab39ab6107e8899845ad3d59bd9653f200f220920489ca2b5937696c3183604051611008919061183f565b60405180910390a3505050565b60008373ffffffffffffffffffffffffffffffffffffffff163b11156111c6578273ffffffffffffffffffffffffffffffffffffffff1663150b7a02611059610af0565b8685856040518563ffffffff1660e01b815260040161107b9493929190611fc3565b6020604051808303816000875af19250505080156110b757506040513d601f19601f820116820180604052508101906110b49190612024565b60015b61113b573d80600081146110e7576040519150601f19603f3d011682016040523d82523d6000602084013e6110ec565b606091505b50600081510361113357836040517f64a0ae9200000000000000000000000000000000000000000000000000000000815260040161112a91906119b0565b60405180910390fd5b805181602001fd5b63150b7a0260e01b7bffffffffffffffffffffffffffffffffffffffffffffffffffffffff1916817bffffffffffffffffffffffffffffffffffffffffffffffffffffffff1916146111c457836040517f64a0ae920000000000000000000000000000000000000000000000000000000081526004016111bb91906119b0565b60405180910390fd5b505b50505050565b606060405180602001604052806000815250905090565b6060600060016111f284611577565b01905060008167ffffffffffffffff81111561121157611210611b57565b5b6040519080825280601f01601f1916602001820160405280156112435781602001600182028036833780820191505090505b509050600082602001820190505b6001156112a6578080600190039150507f3031323334353637383961626364656600000000000000000000000000000000600a86061a8153600a858161129a57611299612051565b5b04945060008503611251575b819350505050919050565b60006002600083815260200190815260200160002060009054906101000a900473ffffffffffffffffffffffffffffffffffffffff169050919050565b80806113275750600073ffffffffffffffffffffffffffffffffffffffff168273ffffffffffffffffffffffffffffffffffffffff1614155b1561145b57600061133784610a2b565b9050600073ffffffffffffffffffffffffffffffffffffffff168373ffffffffffffffffffffffffffffffffffffffff16141580156113a257508273ffffffffffffffffffffffffffffffffffffffff168173ffffffffffffffffffffffffffffffffffffffff1614155b80156113b557506113b3818461092d565b155b156113f757826040517fa9fbf51f0000000000000000000000000000000000000000000000000000000081526004016113ee91906119b0565b60405180910390fd5b811561145957838573ffffffffffffffffffffffffffffffffffffffff168273ffffffffffffffffffffffffffffffffffffffff167f8c5be1e5ebec7d5bd14f71427d1e84f3dd0314c0f7b2291e5b200ac8c7c3b92560405160405180910390a45b505b836004600085815260200190815260200160002060006101000a81548173ffffffffffffffffffffffffffffffffffffffff021916908373ffffffffffffffffffffffffffffffffffffffff16021790555050505050565b6114be8383836116ca565b61157257600073ffffffffffffffffffffffffffffffffffffffff168373ffffffffffffffffffffffffffffffffffffffff160361153357806040517f7e27328900000000000000000000000000000000000000000000000000000000815260040161152a9190611a46565b60405180910390fd5b81816040517f177e802f000000000000000000000000000000000000000000000000000000008152600401611569929190611ee5565b60405180910390fd5b505050565b600080600090507a184f03e93ff9f4daa797ed6e38ed64bf6a1f01000000000000000083106115d5577a184f03e93ff9f4daa797ed6e38ed64bf6a1f01000000000000000083816115cb576115ca612051565b5b0492506040810190505b6d04ee2d6d415b85acef81000000008310611612576d04ee2d6d415b85acef8100000000838161160857611607612051565b5b0492506020810190505b662386f26fc10000831061164157662386f26fc10000838161163757611636612051565b5b0492506010810190505b6305f5e100831061166a576305f5e10083816116605761165f612051565b5b0492506008810190505b612710831061168f57612710838161168557611684612051565b5b0492506004810190505b606483106116b257606483816116a8576116a7612051565b5b0492506002810190505b600a83106116c1576001810190505b80915050919050565b60008073ffffffffffffffffffffffffffffffffffffffff168373ffffffffffffffffffffffffffffffffffffffff161415801561178257508273ffffffffffffffffffffffffffffffffffffffff168473ffffffffffffffffffffffffffffffffffffffff1614806117435750611742848461092d565b5b8061178157508273ffffffffffffffffffffffffffffffffffffffff1661176983610ab3565b73ffffffffffffffffffffffffffffffffffffffff16145b5b90509392505050565b6000604051905090565b600080fd5b600080fd5b60007fffffffff0000000000000000000000000000000000000000000000000000000082169050919050565b6117d48161179f565b81146117df57600080fd5b50565b6000813590506117f1816117cb565b92915050565b60006020828403121561180d5761180c611795565b5b600061181b848285016117e2565b91505092915050565b60008115159050919050565b61183981611824565b82525050565b60006020820190506118546000830184611830565b92915050565b600081519050919050565b600082825260208201905092915050565b60005b83811015611894578082015181840152602081019050611879565b60008484015250505050565b6000601f19601f8301169050919050565b60006118bc8261185a565b6118c68185611865565b93506118d6818560208601611876565b6118df816118a0565b840191505092915050565b6000602082019050818103600083015261190481846118b1565b905092915050565b6000819050919050565b61191f8161190c565b811461192a57600080fd5b50565b60008135905061193c81611916565b92915050565b60006020828403121561195857611957611795565b5b60006119668482850161192d565b91505092915050565b600073ffffffffffffffffffffffffffffffffffffffff82169050919050565b600061199a8261196f565b9050919050565b6119aa8161198f565b82525050565b60006020820190506119c560008301846119a1565b92915050565b6119d48161198f565b81146119df57600080fd5b50565b6000813590506119f1816119cb565b92915050565b60008060408385031215611a0e57611a0d611795565b5b6000611a1c858286016119e2565b9250506020611a2d8582860161192d565b9150509250929050565b611a408161190c565b82525050565b6000602082019050611a5b6000830184611a37565b92915050565b600080600060608486031215611a7a57611a79611795565b5b6000611a88868287016119e2565b9350506020611a99868287016119e2565b9250506040611aaa8682870161192d565b9150509250925092565b600060208284031215611aca57611ac9611795565b5b6000611ad8848285016119e2565b91505092915050565b611aea81611824565b8114611af557600080fd5b50565b600081359050611b0781611ae1565b92915050565b60008060408385031215611b2457611b23611795565b5b6000611b32858286016119e2565b9250506020611b4385828601611af8565b9150509250929050565b600080fd5b600080fd5b7f4e487b7100000000000000000000000000000000000000000000000000000000600052604160045260246000fd5b611b8f826118a0565b810181811067ffffffffffffffff82111715611bae57611bad611b57565b5b80604052505050565b6000611bc161178b565b9050611bcd8282611b86565b919050565b600067ffffffffffffffff821115611bed57611bec611b57565b5b611bf6826118a0565b9050602081019050919050565b82818337600083830152505050565b6000611c25611c2084611bd2565b611bb7565b905082815260208101848484011115611c4157611c40611b52565b5b611c4c848285611c03565b509392505050565b600082601f830112611c6957611c68611b4d565b5b8135611c79848260208601611c12565b91505092915050565b60008060008060808587031215611c9c57611c9b611795565b5b6000611caa878288016119e2565b9450506020611cbb878288016119e2565b9350506040611ccc8782880161192d565b925050606085013567ffffffffffffffff811115611ced57611cec61179a565b5b611cf987828801611c54565b91505092959194509250565b60008060408385031215611d1c57611d1b611795565b5b6000611d2a858286016119e2565b9250506020611d3b858286016119e2565b9150509250929050565b7f4e487b7100000000000000000000000000000000000000000000000000000000600052602260045260246000fd5b60006002820490506001821680611d8c57607f821691505b602082108103611d9f57611d9e611d45565b5b50919050565b6000606082019050611dba60008301866119a1565b611dc76020830185611a37565b611dd460408301846119a1565b949350505050565b7f4f6e6c79206f776e65722063616e20706572666f726d2074686973206163746960008201527f6f6e000000000000000000000000000000000000000000000000000000000000602082015250565b6000611e38602283611865565b9150611e4382611ddc565b604082019050919050565b60006020820190508181036000830152611e6781611e2b565b9050919050565b7f4e487b7100000000000000000000000000000000000000000000000000000000600052601160045260246000fd5b6000611ea88261190c565b91507fffffffffffffffffffffffffffffffffffffffffffffffffffffffffffffffff8203611eda57611ed9611e6e565b5b600182019050919050565b6000604082019050611efa60008301856119a1565b611f076020830184611a37565b9392505050565b600081905092915050565b6000611f248261185a565b611f2e8185611f0e565b9350611f3e818560208601611876565b80840191505092915050565b6000611f568285611f19565b9150611f628284611f19565b91508190509392505050565b600081519050919050565b600082825260208201905092915050565b6000611f9582611f6e565b611f9f8185611f79565b9350611faf818560208601611876565b611fb8816118a0565b840191505092915050565b6000608082019050611fd860008301876119a1565b611fe560208301866119a1565b611ff26040830185611a37565b81810360608301526120048184611f8a565b905095945050505050565b60008151905061201e816117cb565b92915050565b60006020828403121561203a57612039611795565b5b60006120488482850161200f565b91505092915050565b7f4e487b7100000000000000000000000000000000000000000000000000000000600052601260045260246000fdfea2646970667358221220802e587e622ee409296c1d30a6ddb1ac8d16bc025ff98d76c5578ea4652b49db64736f6c63430008180033",
  "linkReferences": {},
  "deployedLinkReferences": {}
}