{
  "_format": "hh-sol-artifact-1",
  "contractName": "Multisig",
  "sourceName": "contracts/Multisig.sol",
  "abi": [
    {
      "inputs": [
        {
          "internalType": "uint8",
          "name": "_quorum",
          "type": "uint8"
        },
        {
          "internalType": "address[]",
          "name": "_validSigners",
          "type": "address[]"
        }
      ],
      "stateMutability": "nonpayable",
      "type": "constructor"
    },
    {
      "inputs": [
        {
          "internalType": "uint8",
          "name": "_trxId",
          "type": "uint8"
        }
      ],
      "name": "approveQuorumUpdate",
      "outputs": [],
      "stateMutability": "nonpayable",
      "type": "function"
    },
    {
      "inputs": [
        {
          "internalType": "uint8",
          "name": "_txId",
          "type": "uint8"
        }
      ],
      "name": "approveTransferTx",
      "outputs": [],
      "stateMutability": "nonpayable",
      "type": "function"
    },
    {
      "inputs": [
        {
          "internalType": "address",
          "name": "",
          "type": "address"
        },
        {
          "internalType": "uint256",
          "name": "",
          "type": "uint256"
        }
      ],
      "name": "hasSigned",
      "outputs": [
        {
          "internalType": "bool",
          "name": "",
          "type": "bool"
        }
      ],
      "stateMutability": "view",
      "type": "function"
    },
    {
      "inputs": [
        {
          "internalType": "address",
          "name": "",
          "type": "address"
        }
      ],
      "name": "isValidSigner",
      "outputs": [
        {
          "internalType": "bool",
          "name": "",
          "type": "bool"
        }
      ],
      "stateMutability": "view",
      "type": "function"
    },
    {
      "inputs": [],
      "name": "noOfValidSigners",
      "outputs": [
        {
          "internalType": "uint8",
          "name": "",
          "type": "uint8"
        }
      ],
      "stateMutability": "view",
      "type": "function"
    },
    {
      "inputs": [],
      "name": "quorum",
      "outputs": [
        {
          "internalType": "uint8",
          "name": "",
          "type": "uint8"
        }
      ],
      "stateMutability": "view",
      "type": "function"
    },
    {
      "inputs": [
        {
          "internalType": "uint256",
          "name": "",
          "type": "uint256"
        }
      ],
      "name": "transactions",
      "outputs": [
        {
          "internalType": "uint256",
          "name": "id",
          "type": "uint256"
        },
        {
          "internalType": "enum Multisig.TrxType",
          "name": "trxType",
          "type": "uint8"
        },
        {
          "internalType": "uint256",
          "name": "amount",
          "type": "uint256"
        },
        {
          "internalType": "uint8",
          "name": "newQuorum",
          "type": "uint8"
        },
        {
          "internalType": "address",
          "name": "sender",
          "type": "address"
        },
        {
          "internalType": "address",
          "name": "recipient",
          "type": "address"
        },
        {
          "internalType": "bool",
          "name": "isCompleted",
          "type": "bool"
        },
        {
          "internalType": "uint256",
          "name": "timestamp",
          "type": "uint256"
        },
        {
          "internalType": "uint256",
          "name": "noOfApproval",
          "type": "uint256"
        },
        {
          "internalType": "address",
          "name": "tokenAddress",
          "type": "address"
        }
      ],
      "stateMutability": "view",
      "type": "function"
    },
    {
      "inputs": [
        {
          "internalType": "uint256",
          "name": "_amount",
          "type": "uint256"
        },
        {
          "internalType": "address",
          "name": "_recipient",
          "type": "address"
        },
        {
          "internalType": "address",
          "name": "_tokenAddress",
          "type": "address"
        }
      ],
      "name": "transfer",
      "outputs": [],
      "stateMutability": "nonpayable",
      "type": "function"
    },
    {
      "inputs": [],
      "name": "txCount",
      "outputs": [
        {
          "internalType": "uint256",
          "name": "",
          "type": "uint256"
        }
      ],
      "stateMutability": "view",
      "type": "function"
    },
    {
      "inputs": [
        {
          "internalType": "uint8",
          "name": "_quorum",
          "type": "uint8"
        }
      ],
      "name": "updateQuorum",
      "outputs": [],
      "stateMutability": "nonpayable",
      "type": "function"
    }
  ],
  "bytecode": "0x60806040523480156200001157600080fd5b5060405162002a5538038062002a5583398181016040528101906200003791906200063d565b60018151116200007e576040517f08c379a0000000000000000000000000000000000000000000000000000000008152600401620000759062000704565b60405180910390fd5b60018260ff1611620000c7576040517f08c379a0000000000000000000000000000000000000000000000000000000008152600401620000be9062000776565b60405180910390fd5b60005b81518110156200029357600073ffffffffffffffffffffffffffffffffffffffff1682828151811062000102576200010162000798565b5b602002602001015173ffffffffffffffffffffffffffffffffffffffff160362000163576040517f08c379a00000000000000000000000000000000000000000000000000000000081526004016200015a9062000817565b60405180910390fd5b600260008383815181106200017d576200017c62000798565b5b602002602001015173ffffffffffffffffffffffffffffffffffffffff1673ffffffffffffffffffffffffffffffffffffffff16815260200190815260200160002060009054906101000a900460ff161562000210576040517f08c379a0000000000000000000000000000000000000000000000000000000008152600401620002079062000889565b60405180910390fd5b6001600260008484815181106200022c576200022b62000798565b5b602002602001015173ffffffffffffffffffffffffffffffffffffffff1673ffffffffffffffffffffffffffffffffffffffff16815260200190815260200160002060006101000a81548160ff0219169083151502179055508080600101915050620000ca565b508051600060016101000a81548160ff021916908360ff160217905550600260003373ffffffffffffffffffffffffffffffffffffffff1673ffffffffffffffffffffffffffffffffffffffff16815260200190815260200160002060009054906101000a900460ff1662000394576001600260003373ffffffffffffffffffffffffffffffffffffffff1673ffffffffffffffffffffffffffffffffffffffff16815260200190815260200160002060006101000a81548160ff0219169083151502179055506001600060018282829054906101000a900460ff166200037b9190620008da565b92506101000a81548160ff021916908360ff1602179055505b600060019054906101000a900460ff1660ff168260ff161115620003ef576040517f08c379a0000000000000000000000000000000000000000000000000000000008152600401620003e6906200098c565b60405180910390fd5b816000806101000a81548160ff021916908360ff1602179055505050620009ae565b6000604051905090565b600080fd5b600080fd5b600060ff82169050919050565b6200043d8162000425565b81146200044957600080fd5b50565b6000815190506200045d8162000432565b92915050565b600080fd5b6000601f19601f8301169050919050565b7f4e487b7100000000000000000000000000000000000000000000000000000000600052604160045260246000fd5b620004b38262000468565b810181811067ffffffffffffffff82111715620004d557620004d462000479565b5b80604052505050565b6000620004ea62000411565b9050620004f88282620004a8565b919050565b600067ffffffffffffffff8211156200051b576200051a62000479565b5b602082029050602081019050919050565b600080fd5b600073ffffffffffffffffffffffffffffffffffffffff82169050919050565b60006200055e8262000531565b9050919050565b620005708162000551565b81146200057c57600080fd5b50565b600081519050620005908162000565565b92915050565b6000620005ad620005a784620004fd565b620004de565b90508083825260208201905060208402830185811115620005d357620005d26200052c565b5b835b81811015620006005780620005eb88826200057f565b845260208401935050602081019050620005d5565b5050509392505050565b600082601f83011262000622576200062162000463565b5b81516200063484826020860162000596565b91505092915050565b600080604083850312156200065757620006566200041b565b5b600062000667858286016200044c565b925050602083015167ffffffffffffffff8111156200068b576200068a62000420565b5b62000699858286016200060a565b9150509250929050565b600082825260208201905092915050565b7f6665772076616c6964207369676e657273000000000000000000000000000000600082015250565b6000620006ec601183620006a3565b9150620006f982620006b4565b602082019050919050565b600060208201905081810360008301526200071f81620006dd565b9050919050565b7f71756f72756d20697320746f6f20736d616c6c00000000000000000000000000600082015250565b60006200075e601383620006a3565b91506200076b8262000726565b602082019050919050565b6000602082019050818103600083015262000791816200074f565b9050919050565b7f4e487b7100000000000000000000000000000000000000000000000000000000600052603260045260246000fd5b7f7a65726f2061646472657373206e6f7420616c6c6f7765640000000000000000600082015250565b6000620007ff601883620006a3565b91506200080c82620007c7565b602082019050919050565b600060208201905081810360008301526200083281620007f0565b9050919050565b7f7369676e657220616c7265616479206578697374000000000000000000000000600082015250565b600062000871601483620006a3565b91506200087e8262000839565b602082019050919050565b60006020820190508181036000830152620008a48162000862565b9050919050565b7f4e487b7100000000000000000000000000000000000000000000000000000000600052601160045260246000fd5b6000620008e78262000425565b9150620008f48362000425565b9250828201905060ff81111562000910576200090f620008ab565b5b92915050565b7f71756f72756d2067726561746572207468616e2076616c6964207369676e657260008201527f7300000000000000000000000000000000000000000000000000000000000000602082015250565b600062000974602183620006a3565b9150620009818262000916565b604082019050919050565b60006020820190508181036000830152620009a78162000965565b9050919050565b61209780620009be6000396000f3fe608060405234801561001057600080fd5b506004361061009e5760003560e01c80635952dd90116100665780635952dd90146101355780639ace38c214610165578063ccb570e31461019e578063d40cfc51146101ba578063d5f50582146101d65761009e565b80631703a018146100a357806317eff51b146100c1578063279814b5146100df57806331470afc146100fb5780633c54068714610117575b600080fd5b6100ab610206565b6040516100b89190611584565b60405180910390f35b6100c9610217565b6040516100d69190611584565b60405180910390f35b6100f960048036038101906100f491906115d0565b61022a565b005b610115600480360381019061011091906115d0565b61062c565b005b61011f610bb3565b60405161012c9190611616565b60405180910390f35b61014f600480360381019061014a91906116bb565b610bb9565b60405161015c9190611716565b60405180910390f35b61017f600480360381019061017a9190611731565b610be8565b6040516101959a999897969594939291906117e4565b60405180910390f35b6101b860048036038101906101b39190611880565b610cc3565b005b6101d460048036038101906101cf91906115d0565b6111df565b005b6101f060048036038101906101eb91906118d3565b611548565b6040516101fd9190611716565b60405180910390f35b60008054906101000a900460ff1681565b600060019054906101000a900460ff1681565b6000600360008360ff1681526020019081526020016000209050600081600001540361028b576040517f08c379a00000000000000000000000000000000000000000000000000000000081526004016102829061195d565b60405180910390fd5b60018081111561029e5761029d61175e565b5b8160010160009054906101000a900460ff1660018111156102c2576102c161175e565b5b14610302576040517f08c379a00000000000000000000000000000000000000000000000000000000081526004016102f9906119c9565b60405180910390fd5b8060040160149054906101000a900460ff1615610354576040517f08c379a000000000000000000000000000000000000000000000000000000000815260040161034b90611a35565b60405180910390fd5b60008054906101000a900460ff1660ff168160060154106103aa576040517f08c379a00000000000000000000000000000000000000000000000000000000081526004016103a190611aa1565b60405180910390fd5b600260003373ffffffffffffffffffffffffffffffffffffffff1673ffffffffffffffffffffffffffffffffffffffff16815260200190815260200160002060009054906101000a900460ff16610436576040517f08c379a000000000000000000000000000000000000000000000000000000000815260040161042d90611b0d565b60405180910390fd5b600460003373ffffffffffffffffffffffffffffffffffffffff1673ffffffffffffffffffffffffffffffffffffffff16815260200190815260200160002060008360ff16815260200190815260200160002060009054906101000a900460ff16156104d7576040517f08c379a00000000000000000000000000000000000000000000000000000000081526004016104ce90611b79565b60405180910390fd5b6001600460003373ffffffffffffffffffffffffffffffffffffffff1673ffffffffffffffffffffffffffffffffffffffff16815260200190815260200160002060008460ff16815260200190815260200160002060006101000a81548160ff02191690831515021790555060018160060160008282546105589190611bc8565b9250508190555080600801339080600181540180825580915050600190039060005260206000200160009091909190916101000a81548173ffffffffffffffffffffffffffffffffffffffff021916908373ffffffffffffffffffffffffffffffffffffffff16021790555060008054906101000a900460ff1660ff168160060154036106285760018160040160146101000a81548160ff0219169083151502179055508060030160009054906101000a900460ff166000806101000a81548160ff021916908360ff1602179055505b5050565b6000600360008360ff1681526020019081526020016000209050600081600001540361068d576040517f08c379a000000000000000000000000000000000000000000000000000000000815260040161068490611c48565b60405180910390fd5b600060018111156106a1576106a061175e565b5b8160010160009054906101000a900460ff1660018111156106c5576106c461175e565b5b14610705576040517f08c379a00000000000000000000000000000000000000000000000000000000081526004016106fc906119c9565b60405180910390fd5b80600201548160070160009054906101000a900473ffffffffffffffffffffffffffffffffffffffff1673ffffffffffffffffffffffffffffffffffffffff166370a08231306040518263ffffffff1660e01b81526004016107679190611c68565b602060405180830381865afa158015610784573d6000803e3d6000fd5b505050506040513d601f19601f820116820180604052508101906107a89190611c98565b10156107e9576040517f08c379a00000000000000000000000000000000000000000000000000000000081526004016107e090611d11565b60405180910390fd5b8060040160149054906101000a900460ff161561083b576040517f08c379a000000000000000000000000000000000000000000000000000000000815260040161083290611d7d565b60405180910390fd5b60008054906101000a900460ff1660ff16816006015410610891576040517f08c379a000000000000000000000000000000000000000000000000000000000815260040161088890611aa1565b60405180910390fd5b600260003373ffffffffffffffffffffffffffffffffffffffff1673ffffffffffffffffffffffffffffffffffffffff16815260200190815260200160002060009054906101000a900460ff1661091d576040517f08c379a000000000000000000000000000000000000000000000000000000000815260040161091490611b0d565b60405180910390fd5b600460003373ffffffffffffffffffffffffffffffffffffffff1673ffffffffffffffffffffffffffffffffffffffff16815260200190815260200160002060008360ff16815260200190815260200160002060009054906101000a900460ff16156109be576040517f08c379a00000000000000000000000000000000000000000000000000000000081526004016109b590611b79565b60405180910390fd5b6001600460003373ffffffffffffffffffffffffffffffffffffffff1673ffffffffffffffffffffffffffffffffffffffff16815260200190815260200160002060008460ff16815260200190815260200160002060006101000a81548160ff0219169083151502179055506001816006016000828254610a3f9190611bc8565b9250508190555080600801339080600181540180825580915050600190039060005260206000200160009091909190916101000a81548173ffffffffffffffffffffffffffffffffffffffff021916908373ffffffffffffffffffffffffffffffffffffffff16021790555060008054906101000a900460ff1660ff16816006015403610baf5760018160040160146101000a81548160ff0219169083151502179055508060070160009054906101000a900473ffffffffffffffffffffffffffffffffffffffff1673ffffffffffffffffffffffffffffffffffffffff1663a9059cbb8260040160009054906101000a900473ffffffffffffffffffffffffffffffffffffffff1683600201546040518363ffffffff1660e01b8152600401610b6a929190611d9d565b6020604051808303816000875af1158015610b89573d6000803e3d6000fd5b505050506040513d601f19601f82011682018060405250810190610bad9190611df2565b505b5050565b60015481565b60046020528160005260406000206020528060005260406000206000915091509054906101000a900460ff1681565b60036020528060005260406000206000915090508060000154908060010160009054906101000a900460ff16908060020154908060030160009054906101000a900460ff16908060030160019054906101000a900473ffffffffffffffffffffffffffffffffffffffff16908060040160009054906101000a900473ffffffffffffffffffffffffffffffffffffffff16908060040160149054906101000a900460ff16908060050154908060060154908060070160009054906101000a900473ffffffffffffffffffffffffffffffffffffffff1690508a565b600073ffffffffffffffffffffffffffffffffffffffff163373ffffffffffffffffffffffffffffffffffffffff1603610d32576040517f08c379a0000000000000000000000000000000000000000000000000000000008152600401610d2990611e6b565b60405180910390fd5b600260003373ffffffffffffffffffffffffffffffffffffffff1673ffffffffffffffffffffffffffffffffffffffff16815260200190815260200160002060009054906101000a900460ff16610dbe576040517f08c379a0000000000000000000000000000000000000000000000000000000008152600401610db590611ed7565b60405180910390fd5b60008311610e01576040517f08c379a0000000000000000000000000000000000000000000000000000000008152600401610df890611f43565b60405180910390fd5b600073ffffffffffffffffffffffffffffffffffffffff168273ffffffffffffffffffffffffffffffffffffffff1603610e70576040517f08c379a0000000000000000000000000000000000000000000000000000000008152600401610e6790611e6b565b60405180910390fd5b600073ffffffffffffffffffffffffffffffffffffffff168173ffffffffffffffffffffffffffffffffffffffff1603610edf576040517f08c379a0000000000000000000000000000000000000000000000000000000008152600401610ed690611e6b565b60405180910390fd5b828173ffffffffffffffffffffffffffffffffffffffff166370a08231306040518263ffffffff1660e01b8152600401610f199190611c68565b602060405180830381865afa158015610f36573d6000803e3d6000fd5b505050506040513d601f19601f82011682018060405250810190610f5a9190611c98565b1015610f9b576040517f08c379a0000000000000000000000000000000000000000000000000000000008152600401610f9290611d11565b60405180910390fd5b600060018054610fab9190611bc8565b90506000600360008381526020019081526020016000209050818160000181905550848160020181905550838160040160006101000a81548173ffffffffffffffffffffffffffffffffffffffff021916908373ffffffffffffffffffffffffffffffffffffffff160217905550338160030160016101000a81548173ffffffffffffffffffffffffffffffffffffffff021916908373ffffffffffffffffffffffffffffffffffffffff160217905550428160050181905550828160070160006101000a81548173ffffffffffffffffffffffffffffffffffffffff021916908373ffffffffffffffffffffffffffffffffffffffff16021790555060018160060160008282546110bd9190611bc8565b9250508190555060008160010160006101000a81548160ff021916908360018111156110ec576110eb61175e565b5b021790555080600801339080600181540180825580915050600190039060005260206000200160009091909190916101000a81548173ffffffffffffffffffffffffffffffffffffffff021916908373ffffffffffffffffffffffffffffffffffffffff1602179055506001600460003373ffffffffffffffffffffffffffffffffffffffff1673ffffffffffffffffffffffffffffffffffffffff168152602001908152602001600020600084815260200190815260200160002060006101000a81548160ff02191690831515021790555060018060008282546111d19190611bc8565b925050819055505050505050565b600073ffffffffffffffffffffffffffffffffffffffff163373ffffffffffffffffffffffffffffffffffffffff160361124e576040517f08c379a000000000000000000000000000000000000000000000000000000000815260040161124590611e6b565b60405180910390fd5b600260003373ffffffffffffffffffffffffffffffffffffffff1673ffffffffffffffffffffffffffffffffffffffff16815260200190815260200160002060009054906101000a900460ff166112da576040517f08c379a00000000000000000000000000000000000000000000000000000000081526004016112d190611ed7565b60405180910390fd5b600060019054906101000a900460ff1660ff168160ff161115611332576040517f08c379a000000000000000000000000000000000000000000000000000000000815260040161132990611fd5565b60405180910390fd5b60018160ff1611611378576040517f08c379a000000000000000000000000000000000000000000000000000000000815260040161136f90612041565b60405180910390fd5b6000600180546113889190611bc8565b9050600060036000838152602001908152602001600020905081816000018190555080600801339080600181540180825580915050600190039060005260206000200160009091909190916101000a81548173ffffffffffffffffffffffffffffffffffffffff021916908373ffffffffffffffffffffffffffffffffffffffff160217905550338160030160016101000a81548173ffffffffffffffffffffffffffffffffffffffff021916908373ffffffffffffffffffffffffffffffffffffffff16021790555042816005018190555060018160010160006101000a81548160ff021916908360018111156114835761148261175e565b5b0217905550600181600601600082825461149d9190611bc8565b92505081905550828160030160006101000a81548160ff021916908360ff1602179055506001600460003373ffffffffffffffffffffffffffffffffffffffff1673ffffffffffffffffffffffffffffffffffffffff168152602001908152602001600020600084815260200190815260200160002060006101000a81548160ff021916908315150217905550600180600082825461153c9190611bc8565b92505081905550505050565b60026020528060005260406000206000915054906101000a900460ff1681565b600060ff82169050919050565b61157e81611568565b82525050565b60006020820190506115996000830184611575565b92915050565b600080fd5b6115ad81611568565b81146115b857600080fd5b50565b6000813590506115ca816115a4565b92915050565b6000602082840312156115e6576115e561159f565b5b60006115f4848285016115bb565b91505092915050565b6000819050919050565b611610816115fd565b82525050565b600060208201905061162b6000830184611607565b92915050565b600073ffffffffffffffffffffffffffffffffffffffff82169050919050565b600061165c82611631565b9050919050565b61166c81611651565b811461167757600080fd5b50565b60008135905061168981611663565b92915050565b611698816115fd565b81146116a357600080fd5b50565b6000813590506116b58161168f565b92915050565b600080604083850312156116d2576116d161159f565b5b60006116e08582860161167a565b92505060206116f1858286016116a6565b9150509250929050565b60008115159050919050565b611710816116fb565b82525050565b600060208201905061172b6000830184611707565b92915050565b6000602082840312156117475761174661159f565b5b6000611755848285016116a6565b91505092915050565b7f4e487b7100000000000000000000000000000000000000000000000000000000600052602160045260246000fd5b6002811061179e5761179d61175e565b5b50565b60008190506117af8261178d565b919050565b60006117bf826117a1565b9050919050565b6117cf816117b4565b82525050565b6117de81611651565b82525050565b6000610140820190506117fa600083018d611607565b611807602083018c6117c6565b611814604083018b611607565b611821606083018a611575565b61182e60808301896117d5565b61183b60a08301886117d5565b61184860c0830187611707565b61185560e0830186611607565b611863610100830185611607565b6118716101208301846117d5565b9b9a5050505050505050505050565b6000806000606084860312156118995761189861159f565b5b60006118a7868287016116a6565b93505060206118b88682870161167a565b92505060406118c98682870161167a565b9150509250925092565b6000602082840312156118e9576118e861159f565b5b60006118f78482850161167a565b91505092915050565b600082825260208201905092915050565b7f696e76616c696420757064617465206964000000000000000000000000000000600082015250565b6000611947601183611900565b915061195282611911565b602082019050919050565b600060208201905081810360008301526119768161193a565b9050919050565b7f496e76616c6964207472616e73616374696f6e20747970650000000000000000600082015250565b60006119b3601883611900565b91506119be8261197d565b602082019050919050565b600060208201905081810360008301526119e2816119a6565b9050919050565b7f71756f72756d2075706461746520616c726561647920636f6d706c6574656400600082015250565b6000611a1f601f83611900565b9150611a2a826119e9565b602082019050919050565b60006020820190508181036000830152611a4e81611a12565b9050919050565b7f617070726f76616c7320616c7265616479207265616368656400000000000000600082015250565b6000611a8b601983611900565b9150611a9682611a55565b602082019050919050565b60006020820190508181036000830152611aba81611a7e565b9050919050565b7f6e6f7420612076616c6964207369676e65720000000000000000000000000000600082015250565b6000611af7601283611900565b9150611b0282611ac1565b602082019050919050565b60006020820190508181036000830152611b2681611aea565b9050919050565b7f63616e2774207369676e20747769636500000000000000000000000000000000600082015250565b6000611b63601083611900565b9150611b6e82611b2d565b602082019050919050565b60006020820190508181036000830152611b9281611b56565b9050919050565b7f4e487b7100000000000000000000000000000000000000000000000000000000600052601160045260246000fd5b6000611bd3826115fd565b9150611bde836115fd565b9250828201905080821115611bf657611bf5611b99565b5b92915050565b7f696e76616c696420747820696400000000000000000000000000000000000000600082015250565b6000611c32600d83611900565b9150611c3d82611bfc565b602082019050919050565b60006020820190508181036000830152611c6181611c25565b9050919050565b6000602082019050611c7d60008301846117d5565b92915050565b600081519050611c928161168f565b92915050565b600060208284031215611cae57611cad61159f565b5b6000611cbc84828501611c83565b91505092915050565b7f696e73756666696369656e742066756e64730000000000000000000000000000600082015250565b6000611cfb601283611900565b9150611d0682611cc5565b602082019050919050565b60006020820190508181036000830152611d2a81611cee565b9050919050565b7f7472616e73616374696f6e20616c726561647920636f6d706c65746564000000600082015250565b6000611d67601d83611900565b9150611d7282611d31565b602082019050919050565b60006020820190508181036000830152611d9681611d5a565b9050919050565b6000604082019050611db260008301856117d5565b611dbf6020830184611607565b9392505050565b611dcf816116fb565b8114611dda57600080fd5b50565b600081519050611dec81611dc6565b92915050565b600060208284031215611e0857611e0761159f565b5b6000611e1684828501611ddd565b91505092915050565b7f61646472657373207a65726f20666f756e640000000000000000000000000000600082015250565b6000611e55601283611900565b9150611e6082611e1f565b602082019050919050565b60006020820190508181036000830152611e8481611e48565b9050919050565b7f696e76616c6964207369676e6572000000000000000000000000000000000000600082015250565b6000611ec1600e83611900565b9150611ecc82611e8b565b602082019050919050565b60006020820190508181036000830152611ef081611eb4565b9050919050565b7f63616e27742073656e64207a65726f20616d6f756e7400000000000000000000600082015250565b6000611f2d601683611900565b9150611f3882611ef7565b602082019050919050565b60006020820190508181036000830152611f5c81611f20565b9050919050565b7f71756f72756d2067726561746572207468616e2076616c6964207369676e657260008201527f7300000000000000000000000000000000000000000000000000000000000000602082015250565b6000611fbf602183611900565b9150611fca82611f63565b604082019050919050565b60006020820190508181036000830152611fee81611fb2565b9050919050565b7f71756f72756d20697320746f6f20736d616c6c00000000000000000000000000600082015250565b600061202b601383611900565b915061203682611ff5565b602082019050919050565b6000602082019050818103600083015261205a8161201e565b905091905056fea26469706673582212208de0dcff0509523d40ad4739f47a60db309be1321375f1f60d465015a5864e7964736f6c63430008180033",
  "linkReferences": {},
  "deployedLinkReferences": {}
}