{
  "_format": "hh-sol-artifact-1",
  "contractName": "NftMarketplace",
  "sourceName": "contracts/Nftmarketplace.sol",
  "abi": [
    {
      "inputs": [
        {
          "internalType": "address",
          "name": "_nftAddress",
          "type": "address"
        }
      ],
      "stateMutability": "nonpayable",
      "type": "constructor"
    },
    {
      "anonymous": false,
      "inputs": [
        {
          "indexed": true,
          "internalType": "uint256",
          "name": "tokenId",
          "type": "uint256"
        },
        {
          "indexed": false,
          "internalType": "address",
          "name": "buyer",
          "type": "address"
        },
        {
          "indexed": false,
          "internalType": "uint256",
          "name": "price",
          "type": "uint256"
        }
      ],
      "name": "Bought",
      "type": "event"
    },
    {
      "anonymous": false,
      "inputs": [
        {
          "indexed": true,
          "internalType": "uint256",
          "name": "tokenId",
          "type": "uint256"
        },
        {
          "indexed": false,
          "internalType": "uint256",
          "name": "price",
          "type": "uint256"
        }
      ],
      "name": "Listed",
      "type": "event"
    },
    {
      "anonymous": false,
      "inputs": [
        {
          "indexed": true,
          "internalType": "uint256",
          "name": "tokenId",
          "type": "uint256"
        },
        {
          "indexed": false,
          "internalType": "address",
          "name": "owner",
          "type": "address"
        }
      ],
      "name": "NewNFTMinted",
      "type": "event"
    },
    {
      "anonymous": false,
      "inputs": [
        {
          "indexed": true,
          "internalType": "uint256",
          "name": "tokenId",
          "type": "uint256"
        }
      ],
      "name": "UnListed",
      "type": "event"
    },
    {
      "inputs": [
        {
          "internalType": "uint256",
          "name": "tokenId",
          "type": "uint256"
        }
      ],
      "name": "buyNFT",
      "outputs": [],
      "stateMutability": "payable",
      "type": "function"
    },
    {
      "inputs": [
        {
          "internalType": "uint256",
          "name": "tokenId",
          "type": "uint256"
        }
      ],
      "name": "getListedNFT",
      "outputs": [
        {
          "components": [
            {
              "internalType": "uint256",
              "name": "tokenId",
              "type": "uint256"
            },
            {
              "internalType": "address payable",
              "name": "seller",
              "type": "address"
            },
            {
              "internalType": "uint256",
              "name": "price",
              "type": "uint256"
            },
            {
              "internalType": "bool",
              "name": "isListed",
              "type": "bool"
            }
          ],
          "internalType": "struct NftMarketplace.ListedNFT",
          "name": "",
          "type": "tuple"
        }
      ],
      "stateMutability": "view",
      "type": "function"
    },
    {
      "inputs": [
        {
          "internalType": "uint256",
          "name": "tokenId",
          "type": "uint256"
        },
        {
          "internalType": "uint256",
          "name": "price",
          "type": "uint256"
        }
      ],
      "name": "listNFT",
      "outputs": [],
      "stateMutability": "nonpayable",
      "type": "function"
    },
    {
      "inputs": [
        {
          "internalType": "uint256",
          "name": "",
          "type": "uint256"
        }
      ],
      "name": "listedNFTs",
      "outputs": [
        {
          "internalType": "uint256",
          "name": "tokenId",
          "type": "uint256"
        },
        {
          "internalType": "address payable",
          "name": "seller",
          "type": "address"
        },
        {
          "internalType": "uint256",
          "name": "price",
          "type": "uint256"
        },
        {
          "internalType": "bool",
          "name": "isListed",
          "type": "bool"
        }
      ],
      "stateMutability": "view",
      "type": "function"
    },
    {
      "inputs": [],
      "name": "nftAddress",
      "outputs": [
        {
          "internalType": "contract IERC721",
          "name": "",
          "type": "address"
        }
      ],
      "stateMutability": "view",
      "type": "function"
    },
    {
      "inputs": [],
      "name": "owner",
      "outputs": [
        {
          "internalType": "address",
          "name": "",
          "type": "address"
        }
      ],
      "stateMutability": "view",
      "type": "function"
    },
    {
      "inputs": [
        {
          "internalType": "uint256",
          "name": "tokenId",
          "type": "uint256"
        }
      ],
      "name": "unlistNFT",
      "outputs": [],
      "stateMutability": "nonpayable",
      "type": "function"
    }
  ],
  "bytecode": "0x608060405260016000553480156200001657600080fd5b50604051620011c2380380620011c283398181016040528101906200003c91906200012f565b33600160006101000a81548173ffffffffffffffffffffffffffffffffffffffff021916908373ffffffffffffffffffffffffffffffffffffffff16021790555080600260006101000a81548173ffffffffffffffffffffffffffffffffffffffff021916908373ffffffffffffffffffffffffffffffffffffffff1602179055505062000161565b600080fd5b600073ffffffffffffffffffffffffffffffffffffffff82169050919050565b6000620000f782620000ca565b9050919050565b6200010981620000ea565b81146200011557600080fd5b50565b6000815190506200012981620000fe565b92915050565b600060208284031215620001485762000147620000c5565b5b6000620001588482850162000118565b91505092915050565b61105180620001716000396000f3fe6080604052600436106100705760003560e01c80638da5cb5b1161004e5780638da5cb5b146100f957806394383f1414610124578063961f09441461014d578063a01dc41f1461017657610070565b80631a6a9c7e1461007557806351ed8288146100b25780635bf8633a146100ce575b600080fd5b34801561008157600080fd5b5061009c60048036038101906100979190610a1d565b6101b6565b6040516100a99190610b0a565b60405180910390f35b6100cc60048036038101906100c79190610a1d565b6102cb565b005b3480156100da57600080fd5b506100e36104db565b6040516100f09190610b84565b60405180910390f35b34801561010557600080fd5b5061010e610501565b60405161011b9190610bc0565b60405180910390f35b34801561013057600080fd5b5061014b60048036038101906101469190610bdb565b610527565b005b34801561015957600080fd5b50610174600480360381019061016f9190610a1d565b61077a565b005b34801561018257600080fd5b5061019d60048036038101906101989190610a1d565b610945565b6040516101ad9493929190610c48565b60405180910390f35b6101be6109a2565b6003600083815260200190815260200160002060030160009054906101000a900460ff16610221576040517f08c379a000000000000000000000000000000000000000000000000000000000815260040161021890610cea565b60405180910390fd5b60036000838152602001908152602001600020604051806080016040529081600082015481526020016001820160009054906101000a900473ffffffffffffffffffffffffffffffffffffffff1673ffffffffffffffffffffffffffffffffffffffff1673ffffffffffffffffffffffffffffffffffffffff168152602001600282015481526020016003820160009054906101000a900460ff1615151515815250509050919050565b60006003600083815260200190815260200160002090508060030160009054906101000a900460ff16610333576040517f08c379a000000000000000000000000000000000000000000000000000000000815260040161032a90610d56565b60405180910390fd5b806002015434101561037a576040517f08c379a000000000000000000000000000000000000000000000000000000000815260040161037190610dc2565b60405180910390fd5b60008160010160009054906101000a900473ffffffffffffffffffffffffffffffffffffffff169050600260009054906101000a900473ffffffffffffffffffffffffffffffffffffffff1673ffffffffffffffffffffffffffffffffffffffff166342842e0e8233866040518463ffffffff1660e01b815260040161040293929190610e03565b600060405180830381600087803b15801561041c57600080fd5b505af1158015610430573d6000803e3d6000fd5b505050508073ffffffffffffffffffffffffffffffffffffffff166108fc349081150290604051600060405180830381858888f1935050505015801561047a573d6000803e3d6000fd5b5060008260030160006101000a81548160ff021916908315150217905550827fd2728f908c7e0feb83c6278798370fcb86b62f236c9dbf1a3f541096c21590403384600201546040516104ce929190610e3a565b60405180910390a2505050565b600260009054906101000a900473ffffffffffffffffffffffffffffffffffffffff1681565b600160009054906101000a900473ffffffffffffffffffffffffffffffffffffffff1681565b3373ffffffffffffffffffffffffffffffffffffffff16600260009054906101000a900473ffffffffffffffffffffffffffffffffffffffff1673ffffffffffffffffffffffffffffffffffffffff16636352211e846040518263ffffffff1660e01b81526004016105999190610e63565b602060405180830381865afa1580156105b6573d6000803e3d6000fd5b505050506040513d601f19601f820116820180604052508101906105da9190610eaa565b73ffffffffffffffffffffffffffffffffffffffff1614610630576040517f08c379a000000000000000000000000000000000000000000000000000000000815260040161062790610f23565b60405180910390fd5b60008111610673576040517f08c379a000000000000000000000000000000000000000000000000000000000815260040161066a90610f8f565b60405180910390fd5b60405180608001604052808381526020013373ffffffffffffffffffffffffffffffffffffffff16815260200182815260200160011515815250600360008481526020019081526020016000206000820151816000015560208201518160010160006101000a81548173ffffffffffffffffffffffffffffffffffffffff021916908373ffffffffffffffffffffffffffffffffffffffff1602179055506040820151816002015560608201518160030160006101000a81548160ff021916908315150217905550905050817f1ea45e30b31292f9d7c5d37d275b2feca555f13f47dce0fdea2f47e8852ecd788260405161076e9190610e63565b60405180910390a25050565b3373ffffffffffffffffffffffffffffffffffffffff16600260009054906101000a900473ffffffffffffffffffffffffffffffffffffffff1673ffffffffffffffffffffffffffffffffffffffff16636352211e836040518263ffffffff1660e01b81526004016107ec9190610e63565b602060405180830381865afa158015610809573d6000803e3d6000fd5b505050506040513d601f19601f8201168201806040525081019061082d9190610eaa565b73ffffffffffffffffffffffffffffffffffffffff1614610883576040517f08c379a000000000000000000000000000000000000000000000000000000000815260040161087a90610ffb565b60405180910390fd5b6003600082815260200190815260200160002060030160009054906101000a900460ff166108e6576040517f08c379a00000000000000000000000000000000000000000000000000000000081526004016108dd90610cea565b60405180910390fd5b60006003600083815260200190815260200160002060030160006101000a81548160ff021916908315150217905550807ffb1e7370e7499ca5297065f21afd9634dd787737f1cb21688233a600912f014160405160405180910390a250565b60036020528060005260406000206000915090508060000154908060010160009054906101000a900473ffffffffffffffffffffffffffffffffffffffff16908060020154908060030160009054906101000a900460ff16905084565b604051806080016040528060008152602001600073ffffffffffffffffffffffffffffffffffffffff168152602001600081526020016000151581525090565b600080fd5b6000819050919050565b6109fa816109e7565b8114610a0557600080fd5b50565b600081359050610a17816109f1565b92915050565b600060208284031215610a3357610a326109e2565b5b6000610a4184828501610a08565b91505092915050565b610a53816109e7565b82525050565b600073ffffffffffffffffffffffffffffffffffffffff82169050919050565b6000610a8482610a59565b9050919050565b610a9481610a79565b82525050565b60008115159050919050565b610aaf81610a9a565b82525050565b608082016000820151610acb6000850182610a4a565b506020820151610ade6020850182610a8b565b506040820151610af16040850182610a4a565b506060820151610b046060850182610aa6565b50505050565b6000608082019050610b1f6000830184610ab5565b92915050565b6000819050919050565b6000610b4a610b45610b4084610a59565b610b25565b610a59565b9050919050565b6000610b5c82610b2f565b9050919050565b6000610b6e82610b51565b9050919050565b610b7e81610b63565b82525050565b6000602082019050610b996000830184610b75565b92915050565b6000610baa82610a59565b9050919050565b610bba81610b9f565b82525050565b6000602082019050610bd56000830184610bb1565b92915050565b60008060408385031215610bf257610bf16109e2565b5b6000610c0085828601610a08565b9250506020610c1185828601610a08565b9150509250929050565b610c24816109e7565b82525050565b610c3381610a79565b82525050565b610c4281610a9a565b82525050565b6000608082019050610c5d6000830187610c1b565b610c6a6020830186610c2a565b610c776040830185610c1b565b610c846060830184610c39565b95945050505050565b600082825260208201905092915050565b7f4e4654206973206e6f74206c6973746564000000000000000000000000000000600082015250565b6000610cd4601183610c8d565b9150610cdf82610c9e565b602082019050919050565b60006020820190508181036000830152610d0381610cc7565b9050919050565b7f4e4654206973206e6f74206c697374656420666f722073616c65000000000000600082015250565b6000610d40601a83610c8d565b9150610d4b82610d0a565b602082019050919050565b60006020820190508181036000830152610d6f81610d33565b9050919050565b7f496e73756666696369656e742066756e647320746f20627579204e4654000000600082015250565b6000610dac601d83610c8d565b9150610db782610d76565b602082019050919050565b60006020820190508181036000830152610ddb81610d9f565b9050919050565b6000610ded82610b51565b9050919050565b610dfd81610de2565b82525050565b6000606082019050610e186000830186610df4565b610e256020830185610bb1565b610e326040830184610c1b565b949350505050565b6000604082019050610e4f6000830185610bb1565b610e5c6020830184610c1b565b9392505050565b6000602082019050610e786000830184610c1b565b92915050565b610e8781610b9f565b8114610e9257600080fd5b50565b600081519050610ea481610e7e565b92915050565b600060208284031215610ec057610ebf6109e2565b5b6000610ece84828501610e95565b91505092915050565b7f6f6e6c79206f776e65722063616e206c6973742074686973204e465400000000600082015250565b6000610f0d601c83610c8d565b9150610f1882610ed7565b602082019050919050565b60006020820190508181036000830152610f3c81610f00565b9050919050565b7f7072696365206d7573742062652067726561746572207468616e207a65726f00600082015250565b6000610f79601f83610c8d565b9150610f8482610f43565b602082019050919050565b60006020820190508181036000830152610fa881610f6c565b9050919050565b7f4f6e6c79206f776e65722063616e20756e6c6973742074686973204e46540000600082015250565b6000610fe5601e83610c8d565b9150610ff082610faf565b602082019050919050565b6000602082019050818103600083015261101481610fd8565b905091905056fea264697066735822122033644c81746275cd0ca6c118e8f87919a095de7a93a1e12694e31c5a6e30979064736f6c63430008180033",
  "linkReferences": {},
  "deployedLinkReferences": {}
}