{
  "_format": "hh-sol-artifact-1",
  "contractName": "OrderBasedSwap",
  "sourceName": "contracts/Orderbased.sol",
  "abi": [
    {
      "inputs": [],
      "stateMutability": "nonpayable",
      "type": "constructor"
    },
    {
      "anonymous": false,
      "inputs": [
        {
          "indexed": false,
          "internalType": "uint256",
          "name": "orderId",
          "type": "uint256"
        },
        {
          "indexed": false,
          "internalType": "address",
          "name": "seller",
          "type": "address"
        },
        {
          "indexed": false,
          "internalType": "address",
          "name": "offeredToken",
          "type": "address"
        },
        {
          "indexed": false,
          "internalType": "uint256",
          "name": "offeredAmount",
          "type": "uint256"
        },
        {
          "indexed": false,
          "internalType": "address",
          "name": "requestedToken",
          "type": "address"
        },
        {
          "indexed": false,
          "internalType": "uint256",
          "name": "requestedAmount",
          "type": "uint256"
        }
      ],
      "name": "OrderCreated",
      "type": "event"
    },
    {
      "anonymous": false,
      "inputs": [
        {
          "indexed": false,
          "internalType": "uint256",
          "name": "orderId",
          "type": "uint256"
        },
        {
          "indexed": false,
          "internalType": "address",
          "name": "buyer",
          "type": "address"
        },
        {
          "indexed": false,
          "internalType": "uint256",
          "name": "requestedAmount",
          "type": "uint256"
        }
      ],
      "name": "OrderFulfilled",
      "type": "event"
    },
    {
      "inputs": [
        {
          "internalType": "address",
          "name": "_offeredToken",
          "type": "address"
        },
        {
          "internalType": "uint256",
          "name": "_offeredAmount",
          "type": "uint256"
        },
        {
          "internalType": "address",
          "name": "_requestedToken",
          "type": "address"
        },
        {
          "internalType": "uint256",
          "name": "_requestedAmount",
          "type": "uint256"
        }
      ],
      "name": "createOrder",
      "outputs": [],
      "stateMutability": "nonpayable",
      "type": "function"
    },
    {
      "inputs": [
        {
          "internalType": "uint256",
          "name": "_orderId",
          "type": "uint256"
        }
      ],
      "name": "fulfillOrder",
      "outputs": [],
      "stateMutability": "nonpayable",
      "type": "function"
    },
    {
      "inputs": [],
      "name": "orderCount",
      "outputs": [
        {
          "internalType": "uint256",
          "name": "",
          "type": "uint256"
        }
      ],
      "stateMutability": "view",
      "type": "function"
    },
    {
      "inputs": [
        {
          "internalType": "uint256",
          "name": "",
          "type": "uint256"
        }
      ],
      "name": "orders",
      "outputs": [
        {
          "internalType": "address",
          "name": "seller",
          "type": "address"
        },
        {
          "internalType": "address",
          "name": "offeredToken",
          "type": "address"
        },
        {
          "internalType": "uint256",
          "name": "offeredAmount",
          "type": "uint256"
        },
        {
          "internalType": "address",
          "name": "requestedToken",
          "type": "address"
        },
        {
          "internalType": "uint256",
          "name": "requestedAmount",
          "type": "uint256"
        },
        {
          "internalType": "bool",
          "name": "fulfilled",
          "type": "bool"
        }
      ],
      "stateMutability": "view",
      "type": "function"
    },
    {
      "inputs": [],
      "name": "owner",
      "outputs": [
        {
          "internalType": "address",
          "name": "",
          "type": "address"
        }
      ],
      "stateMutability": "view",
      "type": "function"
    },
    {
      "inputs": [
        {
          "internalType": "address",
          "name": "_token",
          "type": "address"
        },
        {
          "internalType": "uint256",
          "name": "_amount",
          "type": "uint256"
        }
      ],
      "name": "withdrawTokens",
      "outputs": [],
      "stateMutability": "nonpayable",
      "type": "function"
    }
  ],
  "bytecode": "0x608060405234801561001057600080fd5b50336000806101000a81548173ffffffffffffffffffffffffffffffffffffffff021916908373ffffffffffffffffffffffffffffffffffffffff160217905550610f8f806100606000396000f3fe608060405234801561001057600080fd5b50600436106100625760003560e01c806306b091f9146100675780632453ffa8146100835780636311e830146100a15780638da5cb5b146100bd578063a85c38ef146100db578063fc05ca3114610110575b600080fd5b610081600480360381019061007c9190610974565b61012c565b005b61008b61023d565b60405161009891906109c3565b60405180910390f35b6100bb60048036038101906100b691906109de565b610243565b005b6100c5610513565b6040516100d29190610a1a565b60405180910390f35b6100f560048036038101906100f091906109de565b610537565b60405161010796959493929190610a50565b60405180910390f35b61012a60048036038101906101259190610ab1565b6105e0565b005b60008054906101000a900473ffffffffffffffffffffffffffffffffffffffff1673ffffffffffffffffffffffffffffffffffffffff163373ffffffffffffffffffffffffffffffffffffffff16146101ba576040517f08c379a00000000000000000000000000000000000000000000000000000000081526004016101b190610b75565b60405180910390fd5b8173ffffffffffffffffffffffffffffffffffffffff1663a9059cbb33836040518363ffffffff1660e01b81526004016101f5929190610b95565b6020604051808303816000875af1158015610214573d6000803e3d6000fd5b505050506040513d601f19601f820116820180604052508101906102389190610bea565b505050565b60015481565b60006002600083815260200190815260200160002090508060050160009054906101000a900460ff16156102ac576040517f08c379a00000000000000000000000000000000000000000000000000000000081526004016102a390610c63565b60405180910390fd5b600073ffffffffffffffffffffffffffffffffffffffff168160000160009054906101000a900473ffffffffffffffffffffffffffffffffffffffff1673ffffffffffffffffffffffffffffffffffffffff160361033f576040517f08c379a000000000000000000000000000000000000000000000000000000000815260040161033690610ccf565b60405180910390fd5b8060030160009054906101000a900473ffffffffffffffffffffffffffffffffffffffff1673ffffffffffffffffffffffffffffffffffffffff166323b872dd338360000160009054906101000a900473ffffffffffffffffffffffffffffffffffffffff1684600401546040518463ffffffff1660e01b81526004016103c893929190610cef565b6020604051808303816000875af11580156103e7573d6000803e3d6000fd5b505050506040513d601f19601f8201168201806040525081019061040b9190610bea565b508060010160009054906101000a900473ffffffffffffffffffffffffffffffffffffffff1673ffffffffffffffffffffffffffffffffffffffff1663a9059cbb3383600201546040518363ffffffff1660e01b815260040161046f929190610b95565b6020604051808303816000875af115801561048e573d6000803e3d6000fd5b505050506040513d601f19601f820116820180604052508101906104b29190610bea565b5060018160050160006101000a81548160ff0219169083151502179055507fcb3dc2a21e2f5a2d47f2012a02e3d088725e88da087b62c693f98dedac2733348233836004015460405161050793929190610d26565b60405180910390a15050565b60008054906101000a900473ffffffffffffffffffffffffffffffffffffffff1681565b60026020528060005260406000206000915090508060000160009054906101000a900473ffffffffffffffffffffffffffffffffffffffff16908060010160009054906101000a900473ffffffffffffffffffffffffffffffffffffffff16908060020154908060030160009054906101000a900473ffffffffffffffffffffffffffffffffffffffff16908060040154908060050160009054906101000a900460ff16905086565b60008311610623576040517f08c379a000000000000000000000000000000000000000000000000000000000815260040161061a90610dcf565b60405180910390fd5b60008111610666576040517f08c379a000000000000000000000000000000000000000000000000000000000815260040161065d90610e61565b60405180910390fd5b8373ffffffffffffffffffffffffffffffffffffffff166323b872dd3330866040518463ffffffff1660e01b81526004016106a393929190610cef565b6020604051808303816000875af11580156106c2573d6000803e3d6000fd5b505050506040513d601f19601f820116820180604052508101906106e69190610bea565b506040518060c001604052803373ffffffffffffffffffffffffffffffffffffffff1681526020018573ffffffffffffffffffffffffffffffffffffffff1681526020018481526020018373ffffffffffffffffffffffffffffffffffffffff1681526020018281526020016000151581525060026000600154815260200190815260200160002060008201518160000160006101000a81548173ffffffffffffffffffffffffffffffffffffffff021916908373ffffffffffffffffffffffffffffffffffffffff16021790555060208201518160010160006101000a81548173ffffffffffffffffffffffffffffffffffffffff021916908373ffffffffffffffffffffffffffffffffffffffff1602179055506040820151816002015560608201518160030160006101000a81548173ffffffffffffffffffffffffffffffffffffffff021916908373ffffffffffffffffffffffffffffffffffffffff1602179055506080820151816004015560a08201518160050160006101000a81548160ff0219169083151502179055509050507f87fe93d79d983fe0c58212e2b0ffef6a47b3d30067aae73d04d7136301ac32d260015433868686866040516108b596959493929190610e81565b60405180910390a1600160008154809291906108d090610f11565b919050555050505050565b600080fd5b600073ffffffffffffffffffffffffffffffffffffffff82169050919050565b600061090b826108e0565b9050919050565b61091b81610900565b811461092657600080fd5b50565b60008135905061093881610912565b92915050565b6000819050919050565b6109518161093e565b811461095c57600080fd5b50565b60008135905061096e81610948565b92915050565b6000806040838503121561098b5761098a6108db565b5b600061099985828601610929565b92505060206109aa8582860161095f565b9150509250929050565b6109bd8161093e565b82525050565b60006020820190506109d860008301846109b4565b92915050565b6000602082840312156109f4576109f36108db565b5b6000610a028482850161095f565b91505092915050565b610a1481610900565b82525050565b6000602082019050610a2f6000830184610a0b565b92915050565b60008115159050919050565b610a4a81610a35565b82525050565b600060c082019050610a656000830189610a0b565b610a726020830188610a0b565b610a7f60408301876109b4565b610a8c6060830186610a0b565b610a9960808301856109b4565b610aa660a0830184610a41565b979650505050505050565b60008060008060808587031215610acb57610aca6108db565b5b6000610ad987828801610929565b9450506020610aea8782880161095f565b9350506040610afb87828801610929565b9250506060610b0c8782880161095f565b91505092959194509250565b600082825260208201905092915050565b7f796f752063616e277420706572666f726d207468697320616374696f6e000000600082015250565b6000610b5f601d83610b18565b9150610b6a82610b29565b602082019050919050565b60006020820190508181036000830152610b8e81610b52565b9050919050565b6000604082019050610baa6000830185610a0b565b610bb760208301846109b4565b9392505050565b610bc781610a35565b8114610bd257600080fd5b50565b600081519050610be481610bbe565b92915050565b600060208284031215610c0057610bff6108db565b5b6000610c0e84828501610bd5565b91505092915050565b7f4f7264657220616c72656164792066756c66696c6c6564000000000000000000600082015250565b6000610c4d601783610b18565b9150610c5882610c17565b602082019050919050565b60006020820190508181036000830152610c7c81610c40565b9050919050565b7f4f7264657220646f6573206e6f74206578697374000000000000000000000000600082015250565b6000610cb9601483610b18565b9150610cc482610c83565b602082019050919050565b60006020820190508181036000830152610ce881610cac565b9050919050565b6000606082019050610d046000830186610a0b565b610d116020830185610a0b565b610d1e60408301846109b4565b949350505050565b6000606082019050610d3b60008301866109b4565b610d486020830185610a0b565b610d5560408301846109b4565b949350505050565b7f4f66666572656420616d6f756e74206d7573742062652067726561746572207460008201527f68616e207a65726f000000000000000000000000000000000000000000000000602082015250565b6000610db9602883610b18565b9150610dc482610d5d565b604082019050919050565b60006020820190508181036000830152610de881610dac565b9050919050565b7f52657175657374656420616d6f756e74206d757374206265206772656174657260008201527f207468616e207a65726f00000000000000000000000000000000000000000000602082015250565b6000610e4b602a83610b18565b9150610e5682610def565b604082019050919050565b60006020820190508181036000830152610e7a81610e3e565b9050919050565b600060c082019050610e9660008301896109b4565b610ea36020830188610a0b565b610eb06040830187610a0b565b610ebd60608301866109b4565b610eca6080830185610a0b565b610ed760a08301846109b4565b979650505050505050565b7f4e487b7100000000000000000000000000000000000000000000000000000000600052601160045260246000fd5b6000610f1c8261093e565b91507fffffffffffffffffffffffffffffffffffffffffffffffffffffffffffffffff8203610f4e57610f4d610ee2565b5b60018201905091905056fea26469706673582212201efb033c87a96ab2e0559b5ec62b83397a67c9e35e628931bfddf7adb759f6b264736f6c63430008180033",
  "linkReferences": {},
  "deployedLinkReferences": {}
}