{
  "_format": "hh-sol-artifact-1",
  "contractName": "SimpleLottery",
  "sourceName": "contracts/lottery.sol",
  "abi": [
    {
      "inputs": [
        {
          "internalType": "uint256",
          "name": "_ticketPrice",
          "type": "uint256"
        }
      ],
      "stateMutability": "nonpayable",
      "type": "constructor"
    },
    {
      "anonymous": false,
      "inputs": [],
      "name": "LotteryEnded",
      "type": "event"
    },
    {
      "anonymous": false,
      "inputs": [
        {
          "indexed": false,
          "internalType": "uint256",
          "name": "ticketPrice",
          "type": "uint256"
        }
      ],
      "name": "LotteryStarted",
      "type": "event"
    },
    {
      "anonymous": false,
      "inputs": [
        {
          "indexed": false,
          "internalType": "address",
          "name": "buyer",
          "type": "address"
        }
      ],
      "name": "TicketPurchased",
      "type": "event"
    },
    {
      "anonymous": false,
      "inputs": [
        {
          "indexed": false,
          "internalType": "address",
          "name": "winner",
          "type": "address"
        },
        {
          "indexed": false,
          "internalType": "uint256",
          "name": "prize",
          "type": "uint256"
        }
      ],
      "name": "WinnerSelected",
      "type": "event"
    },
    {
      "inputs": [],
      "name": "buyTicket",
      "outputs": [],
      "stateMutability": "payable",
      "type": "function"
    },
    {
      "inputs": [],
      "name": "getParticipantCount",
      "outputs": [
        {
          "internalType": "uint256",
          "name": "",
          "type": "uint256"
        }
      ],
      "stateMutability": "view",
      "type": "function"
    },
    {
      "inputs": [
        {
          "internalType": "address",
          "name": "user",
          "type": "address"
        }
      ],
      "name": "isParticipant",
      "outputs": [
        {
          "internalType": "bool",
          "name": "",
          "type": "bool"
        }
      ],
      "stateMutability": "view",
      "type": "function"
    },
    {
      "inputs": [],
      "name": "lastWinner",
      "outputs": [
        {
          "internalType": "address",
          "name": "",
          "type": "address"
        }
      ],
      "stateMutability": "view",
      "type": "function"
    },
    {
      "inputs": [],
      "name": "lotteryOpen",
      "outputs": [
        {
          "internalType": "bool",
          "name": "",
          "type": "bool"
        }
      ],
      "stateMutability": "view",
      "type": "function"
    },
    {
      "inputs": [],
      "name": "owner",
      "outputs": [
        {
          "internalType": "address",
          "name": "",
          "type": "address"
        }
      ],
      "stateMutability": "view",
      "type": "function"
    },
    {
      "inputs": [
        {
          "internalType": "uint256",
          "name": "",
          "type": "uint256"
        }
      ],
      "name": "participants",
      "outputs": [
        {
          "internalType": "address",
          "name": "",
          "type": "address"
        }
      ],
      "stateMutability": "view",
      "type": "function"
    },
    {
      "inputs": [],
      "name": "prizePool",
      "outputs": [
        {
          "internalType": "uint256",
          "name": "",
          "type": "uint256"
        }
      ],
      "stateMutability": "view",
      "type": "function"
    },
    {
      "inputs": [],
      "name": "selectWinner",
      "outputs": [],
      "stateMutability": "nonpayable",
      "type": "function"
    },
    {
      "inputs": [
        {
          "internalType": "uint256",
          "name": "_ticketPrice",
          "type": "uint256"
        }
      ],
      "name": "startNewLottery",
      "outputs": [],
      "stateMutability": "nonpayable",
      "type": "function"
    },
    {
      "inputs": [],
      "name": "ticketPrice",
      "outputs": [
        {
          "internalType": "uint256",
          "name": "",
          "type": "uint256"
        }
      ],
      "stateMutability": "view",
      "type": "function"
    }
  ],
  "bytecode": "0x608060405234801561001057600080fd5b50604051620011a2380380620011a2833981810160405281019061003491906100d7565b336000806101000a81548173ffffffffffffffffffffffffffffffffffffffff021916908373ffffffffffffffffffffffffffffffffffffffff160217905550806001819055506001600460006101000a81548160ff02191690831515021790555050610104565b600080fd5b6000819050919050565b6100b4816100a1565b81146100bf57600080fd5b50565b6000815190506100d1816100ab565b92915050565b6000602082840312156100ed576100ec61009c565b5b60006100fb848285016100c2565b91505092915050565b61108e80620001146000396000f3fe60806040526004361061009c5760003560e01c80638da5cb5b116100645780638da5cb5b14610174578063929066f51461019f578063ad605729146101dc578063c60c4ae914610207578063edca914c14610232578063fe1881841461023c5761009c565b80631209b1f6146100a157806333a99e04146100cc57806335c1d349146100e35780634edf7a9514610120578063719ce73e14610149575b600080fd5b3480156100ad57600080fd5b506100b6610267565b6040516100c39190610a30565b60405180910390f35b3480156100d857600080fd5b506100e161026d565b005b3480156100ef57600080fd5b5061010a60048036038101906101059190610a7c565b610563565b6040516101179190610aea565b60405180910390f35b34801561012c57600080fd5b5061014760048036038101906101429190610a7c565b6105a2565b005b34801561015557600080fd5b5061015e61072f565b60405161016b9190610a30565b60405180910390f35b34801561018057600080fd5b50610189610735565b6040516101969190610aea565b60405180910390f35b3480156101ab57600080fd5b506101c660048036038101906101c19190610b31565b610759565b6040516101d39190610b79565b60405180910390f35b3480156101e857600080fd5b506101f1610801565b6040516101fe9190610a30565b60405180910390f35b34801561021357600080fd5b5061021c61080e565b6040516102299190610b79565b60405180910390f35b61023a610821565b005b34801561024857600080fd5b50610251610969565b60405161025e9190610aea565b60405180910390f35b60015481565b60008054906101000a900473ffffffffffffffffffffffffffffffffffffffff1673ffffffffffffffffffffffffffffffffffffffff163373ffffffffffffffffffffffffffffffffffffffff16146102fb576040517f08c379a00000000000000000000000000000000000000000000000000000000081526004016102f290610bf1565b60405180910390fd5b600460009054906101000a900460ff1661034a576040517f08c379a000000000000000000000000000000000000000000000000000000000815260040161034190610c5d565b60405180910390fd5b600060038054905011610392576040517f08c379a000000000000000000000000000000000000000000000000000000000815260040161038990610cc9565b60405180910390fd5b600061039c61098f565b90506000600382815481106103b4576103b3610ce9565b5b9060005260206000200160009054906101000a900473ffffffffffffffffffffffffffffffffffffffff16905080600460016101000a81548173ffffffffffffffffffffffffffffffffffffffff021916908373ffffffffffffffffffffffffffffffffffffffff1602179055506000600254905060006002819055506000600460006101000a81548160ff0219169083151502179055507f75060f9e79552df167b73353fee6237a75bb5ba8ea022f77224e32f152138bcb828260405161047d929190610d18565b60405180910390a17f9c89a6ed7228533196a3f962acc80d61a9c53bdea6b910741bf754f5aaa7569e60405160405180910390a160008273ffffffffffffffffffffffffffffffffffffffff16826040516104d790610d72565b60006040518083038185875af1925050503d8060008114610514576040519150601f19603f3d011682016040523d82523d6000602084013e610519565b606091505b505090508061055d576040517f08c379a000000000000000000000000000000000000000000000000000000000815260040161055490610dd3565b60405180910390fd5b50505050565b6003818154811061057357600080fd5b906000526020600020016000915054906101000a900473ffffffffffffffffffffffffffffffffffffffff1681565b60008054906101000a900473ffffffffffffffffffffffffffffffffffffffff1673ffffffffffffffffffffffffffffffffffffffff163373ffffffffffffffffffffffffffffffffffffffff1614610630576040517f08c379a000000000000000000000000000000000000000000000000000000000815260040161062790610bf1565b60405180910390fd5b600460009054906101000a900460ff1615610680576040517f08c379a000000000000000000000000000000000000000000000000000000000815260040161067790610e3f565b60405180910390fd5b6000600254146106c5576040517f08c379a00000000000000000000000000000000000000000000000000000000081526004016106bc90610eab565b60405180910390fd5b80600181905550600360006106da91906109d9565b6001600460006101000a81548160ff0219169083151502179055507f3d01c4ba0165a3f9c01ca4916efd5efd92dd9ac07569ff74d7047c7cde668349816040516107249190610a30565b60405180910390a150565b60025481565b60008054906101000a900473ffffffffffffffffffffffffffffffffffffffff1681565b600080600090505b6003805490508110156107f6578273ffffffffffffffffffffffffffffffffffffffff166003828154811061079957610798610ce9565b5b9060005260206000200160009054906101000a900473ffffffffffffffffffffffffffffffffffffffff1673ffffffffffffffffffffffffffffffffffffffff16036107e95760019150506107fc565b8080600101915050610761565b50600090505b919050565b6000600380549050905090565b600460009054906101000a900460ff1681565b600460009054906101000a900460ff16610870576040517f08c379a000000000000000000000000000000000000000000000000000000000815260040161086790610c5d565b60405180910390fd5b60015434146108b4576040517f08c379a00000000000000000000000000000000000000000000000000000000081526004016108ab90610f17565b60405180910390fd5b6003339080600181540180825580915050600190039060005260206000200160009091909190916101000a81548173ffffffffffffffffffffffffffffffffffffffff021916908373ffffffffffffffffffffffffffffffffffffffff16021790555034600260008282546109299190610f66565b925050819055507f23443ac3afaec974c2d4368824912f61a50fee541bcc94ec52414ba6a9b14aab3360405161095f9190610aea565b60405180910390a1565b600460019054906101000a900473ffffffffffffffffffffffffffffffffffffffff1681565b600060038054905042446003805490506040516020016109b193929190610fbb565b6040516020818303038152906040528051906020012060001c6109d49190611027565b905090565b50805460008255906000526020600020908101906109f791906109fa565b50565b5b80821115610a135760008160009055506001016109fb565b5090565b6000819050919050565b610a2a81610a17565b82525050565b6000602082019050610a456000830184610a21565b92915050565b600080fd5b610a5981610a17565b8114610a6457600080fd5b50565b600081359050610a7681610a50565b92915050565b600060208284031215610a9257610a91610a4b565b5b6000610aa084828501610a67565b91505092915050565b600073ffffffffffffffffffffffffffffffffffffffff82169050919050565b6000610ad482610aa9565b9050919050565b610ae481610ac9565b82525050565b6000602082019050610aff6000830184610adb565b92915050565b610b0e81610ac9565b8114610b1957600080fd5b50565b600081359050610b2b81610b05565b92915050565b600060208284031215610b4757610b46610a4b565b5b6000610b5584828501610b1c565b91505092915050565b60008115159050919050565b610b7381610b5e565b82525050565b6000602082019050610b8e6000830184610b6a565b92915050565b600082825260208201905092915050565b7f4e6f74206f776e65720000000000000000000000000000000000000000000000600082015250565b6000610bdb600983610b94565b9150610be682610ba5565b602082019050919050565b60006020820190508181036000830152610c0a81610bce565b9050919050565b7f4c6f747465727920697320636c6f736564000000000000000000000000000000600082015250565b6000610c47601183610b94565b9150610c5282610c11565b602082019050919050565b60006020820190508181036000830152610c7681610c3a565b9050919050565b7f4e6f207061727469636970616e74730000000000000000000000000000000000600082015250565b6000610cb3600f83610b94565b9150610cbe82610c7d565b602082019050919050565b60006020820190508181036000830152610ce281610ca6565b9050919050565b7f4e487b7100000000000000000000000000000000000000000000000000000000600052603260045260246000fd5b6000604082019050610d2d6000830185610adb565b610d3a6020830184610a21565b9392505050565b600081905092915050565b50565b6000610d5c600083610d41565b9150610d6782610d4c565b600082019050919050565b6000610d7d82610d4f565b9150819050919050565b7f5472616e73666572206661696c65640000000000000000000000000000000000600082015250565b6000610dbd600f83610b94565b9150610dc882610d87565b602082019050919050565b60006020820190508181036000830152610dec81610db0565b9050919050565b7f4c6f7474657279207374696c6c2072756e6e696e670000000000000000000000600082015250565b6000610e29601583610b94565b9150610e3482610df3565b602082019050919050565b60006020820190508181036000830152610e5881610e1c565b9050919050565b7f5072697a6520706f6f6c206e6f7420656d707479000000000000000000000000600082015250565b6000610e95601483610b94565b9150610ea082610e5f565b602082019050919050565b60006020820190508181036000830152610ec481610e88565b9050919050565b7f496e636f7272656374207469636b657420707269636500000000000000000000600082015250565b6000610f01601683610b94565b9150610f0c82610ecb565b602082019050919050565b60006020820190508181036000830152610f3081610ef4565b9050919050565b7f4e487b7100000000000000000000000000000000000000000000000000000000600052601160045260246000fd5b6000610f7182610a17565b9150610f7c83610a17565b9250828201905080821115610f9457610f93610f37565b5b92915050565b6000819050919050565b610fb5610fb082610a17565b610f9a565b82525050565b6000610fc78286610fa4565b602082019150610fd78285610fa4565b602082019150610fe78284610fa4565b602082019150819050949350505050565b7f4e487b7100000000000000000000000000000000000000000000000000000000600052601260045260246000fd5b600061103282610a17565b915061103d83610a17565b92508261104d5761104c610ff8565b5b82820690509291505056fea2646970667358221220c8817bc6ef9d834475454973d886ad0d328be031535cf479f52faed19ac8877464736f6c63430008180033",
  "linkReferences": {},
  "deployedLinkReferences": {}
}